{"project/contracts/OfficerMultiSig.sol":{"OfficerMultiSig":{"abi":[{"inputs":[{"internalType":"address[3]","name":"_officers","type":"address[3]"},{"internalType":"address","name":"_transfer","type":"address"},{"internalType":"address","name":"_registry","type":"address"}],"stateMutability":"nonpayable","type":"constructor"},{"inputs":[],"name":"ReentrancyGuardReentrantCall","type":"error"},{"anonymous":false,"inputs":[{"indexed":true,"internalType":"uint256","name":"reviewId","type":"uint256"},{"indexed":true,"internalType":"address","name":"officer","type":"address"},{"indexed":false,"internalType":"uint256","name":"approvalCount","type":"uint256"}],"name":"OfficerApproved","type":"event"},{"anonymous":false,"inputs":[{"indexed":true,"internalType":"uint256","name":"reviewId","type":"uint256"},{"indexed":true,"internalType":"address","name":"officer","type":"address"},{"indexed":false,"internalType":"string","name":"reason","type":"string"}],"name":"OfficerRejected","type":"event"},{"anonymous":false,"inputs":[{"indexed":true,"internalType":"uint256","name":"slot","type":"uint256"},{"indexed":true,"internalType":"address","name":"oldOfficer","type":"address"},{"indexed":true,"internalType":"address","name":"newOfficer","type":"address"}],"name":"OfficerRotated","type":"event"},{"anonymous":false,"inputs":[{"indexed":true,"internalType":"uint256","name":"reviewId","type":"uint256"},{"indexed":true,"internalType":"uint256","name":"proposalId","type":"uint256"},{"indexed":true,"internalType":"bytes32","name":"landId","type":"bytes32"},{"indexed":false,"internalType":"bytes32","name":"offChainCaseRef","type":"bytes32"}],"name":"ReviewSubmitted","type":"event"},{"anonymous":false,"inputs":[{"indexed":true,"internalType":"uint256","name":"reviewId","type":"uint256"},{"indexed":true,"internalType":"uint256","name":"proposalId","type":"uint256"},{"indexed":true,"internalType":"bytes32","name":"landId","type":"bytes32"}],"name":"TransferApproved","type":"event"},{"anonymous":false,"inputs":[{"indexed":true,"internalType":"uint256","name":"reviewId","type":"uint256"},{"indexed":true,"internalType":"uint256","name":"proposalId","type":"uint256"},{"indexed":true,"internalType":"bytes32","name":"landId","type":"bytes32"},{"indexed":false,"internalType":"string","name":"reason","type":"string"}],"name":"TransferRejected","type":"event"},{"inputs":[],"name":"OFFICER_COUNT","outputs":[{"internalType":"uint256","name":"","type":"uint256"}],"stateMutability":"view","type":"function"},{"inputs":[],"name":"THRESHOLD","outputs":[{"internalType":"uint256","name":"","type":"uint256"}],"stateMutability":"view","type":"function"},{"inputs":[],"name":"admin","outputs":[{"internalType":"address","name":"","type":"address"}],"stateMutability":"view","type":"function"},{"inputs":[{"internalType":"uint256","name":"reviewId","type":"uint256"}],"name":"approve","outputs":[],"stateMutability":"nonpayable","type":"function"},{"inputs":[{"internalType":"bytes32","name":"landId","type":"bytes32"}],"name":"clearFreeze","outputs":[],"stateMutability":"nonpayable","type":"function"},{"inputs":[{"internalType":"address","name":"wallet","type":"address"}],"name":"getOfficerIndex","outputs":[{"internalType":"uint256","name":"","type":"uint256"}],"stateMutability":"view","type":"function"},{"inputs":[],"name":"getOfficers","outputs":[{"internalType":"address[3]","name":"","type":"address[3]"}],"stateMutability":"view","type":"function"},{"inputs":[{"internalType":"uint256","name":"reviewId","type":"uint256"}],"name":"getReview","outputs":[{"internalType":"bytes32","name":"landId","type":"bytes32"},{"internalType":"uint256","name":"proposalId","type":"uint256"},{"internalType":"bytes32","name":"offChainCaseRef","type":"bytes32"},{"internalType":"uint256","name":"approvalCount","type":"uint256"},{"internalType":"uint256","name":"rejectionCount","type":"uint256"},{"internalType":"bool","name":"executed","type":"bool"},{"internalType":"bool","name":"rejected","type":"bool"}],"stateMutability":"view","type":"function"},{"inputs":[{"internalType":"uint256","name":"proposalId","type":"uint256"}],"name":"getReviewByProposal","outputs":[{"internalType":"uint256","name":"","type":"uint256"}],"stateMutability":"view","type":"function"},{"inputs":[{"internalType":"uint256","name":"reviewId","type":"uint256"},{"internalType":"address","name":"officer","type":"address"}],"name":"getVote","outputs":[{"internalType":"enum OfficerMultiSig.Vote","name":"","type":"uint8"}],"stateMutability":"view","type":"function"},{"inputs":[{"internalType":"address","name":"","type":"address"}],"name":"isOfficer","outputs":[{"internalType":"bool","name":"","type":"bool"}],"stateMutability":"view","type":"function"},{"inputs":[{"internalType":"address","name":"","type":"address"}],"name":"officerIndex","outputs":[{"internalType":"uint256","name":"","type":"uint256"}],"stateMutability":"view","type":"function"},{"inputs":[{"internalType":"uint256","name":"","type":"uint256"}],"name":"officers","outputs":[{"internalType":"address","name":"","type":"address"}],"stateMutability":"view","type":"function"},{"inputs":[{"internalType":"uint256","name":"","type":"uint256"}],"name":"proposalToReview","outputs":[{"internalType":"uint256","name":"","type":"uint256"}],"stateMutability":"view","type":"function"},{"inputs":[],"name":"registryContract","outputs":[{"internalType":"contract ILandRegistry","name":"","type":"address"}],"stateMutability":"view","type":"function"},{"inputs":[{"internalType":"uint256","name":"reviewId","type":"uint256"},{"internalType":"string","name":"reason","type":"string"}],"name":"reject","outputs":[],"stateMutability":"nonpayable","type":"function"},{"inputs":[],"name":"reviewCount","outputs":[{"internalType":"uint256","name":"","type":"uint256"}],"stateMutability":"view","type":"function"},{"inputs":[{"internalType":"uint256","name":"slot","type":"uint256"},{"internalType":"address","name":"newOfficer","type":"address"}],"name":"rotateOfficer","outputs":[],"stateMutability":"nonpayable","type":"function"},{"inputs":[{"internalType":"uint256","name":"proposalId","type":"uint256"},{"internalType":"bytes32","name":"landId","type":"bytes32"},{"internalType":"bytes32","name":"offChainCaseRef","type":"bytes32"}],"name":"submitForReview","outputs":[{"internalType":"uint256","name":"reviewId","type":"uint256"}],"stateMutability":"nonpayable","type":"function"},{"inputs":[{"internalType":"address","name":"newAdmin","type":"address"}],"name":"transferAdmin","outputs":[],"stateMutability":"nonpayable","type":"function"},{"inputs":[],"name":"transferContract","outputs":[{"internalType":"contract IMultiSigTransfer","name":"","type":"address"}],"stateMutability":"view","type":"function"}],"evm":{"bytecode":{"linkReferences":{},"object":"608060405234801562000010575f80fd5b5060405162001820380380620018208339810160408190526200003391620002c0565b60017f9b779b17422d0df92223018b32b4d1fa46e071723d6817e2486d003becc55f00556001600160a01b038216620000b35760405162461bcd60e51b815260206004820152601960248201527f496e76616c6964207472616e7366657220636f6e74726163740000000000000060448201526064015b60405180910390fd5b6001600160a01b0381166200010b5760405162461bcd60e51b815260206004820152601960248201527f496e76616c696420726567697374727920636f6e7472616374000000000000006044820152606401620000aa565b5f5b60038110156200024c575f8482600381106200012d576200012d6200036c565b602002015190506001600160a01b0381166200018c5760405162461bcd60e51b815260206004820152601760248201527f496e76616c6964206f66666963657220616464726573730000000000000000006044820152606401620000aa565b6001600160a01b0381165f9081526003602052604090205460ff1615620001ea5760405162461bcd60e51b8152602060048201526011602482015270223ab83634b1b0ba329037b33334b1b2b960791b6044820152606401620000aa565b805f83600381106200020057620002006200036c565b0180546001600160a01b0319166001600160a01b03928316179055165f908152600360209081526040808320805460ff191660019081179091556004909252909120829055016200010d565b50600580546001600160a01b039384166001600160a01b03199182161790915560068054929093169181169190911790915560078054909116331790555062000380565b634e487b7160e01b5f52604160045260245ffd5b80516001600160a01b0381168114620002bb575f80fd5b919050565b5f805f60a08486031215620002d3575f80fd5b84601f850112620002e2575f80fd5b604051606081016001600160401b038111828210171562000307576200030762000290565b6040528060608601878111156200031c575f80fd5b865b8181101562000341576200033281620002a4565b8352602092830192016200031e565b508295506200035081620002a4565b94505050506200036360808501620002a4565b90509250925092565b634e487b7160e01b5f52603260045260245ffd5b611492806200038e5f395ff3fe608060405234801561000f575f80fd5b5060043610610132575f3560e01c80637bc39341116100b4578063bc3f931f11610079578063bc3f931f146102d4578063ca057814146102f4578063de591bcf14610313578063eff5924f14610326578063f851a4401461032f578063fdc42e6614610342575f80fd5b80637bc393411461023c5780638cc652141461024f578063989cb1a814610262578063990581b614610275578063b759f954146102c1575f80fd5b80636816442d116100fa5780636816442d146101c75780636b291d9f146101f957806371d68a971461020c57806375829def14610221578063785ffb3714610234575f80fd5b80630f7151dc1461013657806313cf6d3e14610154578063195ee0b61461018157806328c1f99b14610194578063524c5379146101bf575b5f80fd5b61013e610361565b60405161014b9190611118565b60405180910390f35b610173610162366004611151565b600a6020525f908152604090205481565b60405190815260200161014b565b61017361018f366004611168565b6103a5565b6006546101a7906001600160a01b031681565b6040516001600160a01b03909116815260200161014b565b610173600381565b6101e96101d53660046111ac565b60036020525f908152604090205460ff1681565b604051901515815260200161014b565b6101a7610207366004611151565b610536565b61021f61021a3660046111cc565b610554565b005b61021f61022f3660046111ac565b6108ef565b610173600281565b6005546101a7906001600160a01b031681565b61021f61025d366004611241565b6109b1565b6101736102703660046111ac565b610bee565b610288610283366004611151565b610c61565b6040805197885260208801969096529486019390935260608501919091526080840152151560a0830152151560c082015260e00161014b565b61021f6102cf366004611151565b610d05565b6102e76102e2366004611241565b610fa3565b60405161014b919061127f565b610173610302366004611151565b5f908152600a602052604090205490565b61021f610321366004611151565b61102b565b61017360095481565b6007546101a7906001600160a01b031681565b6101736103503660046111ac565b60046020525f908152604090205481565b6103696110fa565b604080516060810191829052905f9060039082845b81546001600160a01b0316815260019091019060200180831161037e575050505050905090565b6005545f906001600160a01b0316331461041f5760405162461bcd60e51b815260206004820152603060248201527f4f6666696365724d756c74695369673a2063616c6c6572206973206e6f74207460448201526f1c985b9cd9995c8818dbdb9d1c9858dd60821b60648201526084015b60405180910390fd5b5f848152600a6020526040902054156104915760405162461bcd60e51b815260206004820152602e60248201527f4f6666696365724d756c74695369673a2070726f706f73616c20616c7265616460448201526d7920756e6465722072657669657760901b6064820152608401610416565b60095f815461049f906112a5565b91829055505f8181526008602090815260408083208781556001810189905560028101879055600381018490556004810184905560058101805462ffffff191662010000179055888452600a8352928190208490555185815292935090918591879185917f6cd8efcff54f475075fb4180dbf617b4b366c585fa513789c2d1ab9597f49da3910160405180910390a4509392505050565b5f8160038110610544575f80fd5b01546001600160a01b0316905081565b335f9081526003602052604090205460ff166105825760405162461bcd60e51b8152600401610416906112c9565b5f83815260086020526040902060050154839062010000900460ff166105ba5760405162461bcd60e51b815260040161041690611300565b5f84815260086020526040902060050154849060ff16156105ed5760405162461bcd60e51b815260040161041690611341565b5f81815260086020526040902060050154610100900460ff16156106235760405162461bcd60e51b815260040161041690611382565b61062b6110ae565b826106785760405162461bcd60e51b815260206004820181905260248201527f4f6666696365724d756c74695369673a20726561736f6e2072657175697265646044820152606401610416565b6101f48311156106ca5760405162461bcd60e51b815260206004820181905260248201527f4f6666696365724d756c74695369673a20726561736f6e20746f6f206c6f6e676044820152606401610416565b5f85815260086020526040812090335f90815260068301602052604090205460ff1660028111156106fd576106fd61126b565b1461074a5760405162461bcd60e51b815260206004820152601e60248201527f4f6666696365724d756c74695369673a20616c726561647920766f74656400006044820152606401610416565b335f9081526006820160205260408120805460ff1916600217905560048201805491610775836112a5565b909155505060058101805461ff001916610100179055604051339087907f51c2067e3084ea930f7c3155fae3d3e45d384dc285775f71cbaa557d477db347906107c190899089906113eb565b60405180910390a3805f01548160010154877fc3e9e35a67692a956367944bddaaa09f078324c8b3e20be3496a319316fbd83988886040516108049291906113eb565b60405180910390a4600554600182015460405163e0a8f6f560e01b81526001600160a01b039092169163e0a8f6f5916108439160040190815260200190565b5f604051808303815f87803b15801561085a575f80fd5b505af115801561086c573d5f803e3d5ffd5b5050600654835460405163986ddccf60e01b81526001600160a01b03909216935063986ddccf92506108a49189908990600401611406565b5f604051808303815f87803b1580156108bb575f80fd5b505af11580156108cd573d5f803e3d5ffd5b50505050506108e860015f8051602061143d83398151915255565b5050505050565b6007546001600160a01b031633146109495760405162461bcd60e51b815260206004820152601a60248201527f4f6666696365724d756c74695369673a206e6f742061646d696e0000000000006044820152606401610416565b6001600160a01b03811661098f5760405162461bcd60e51b815260206004820152600d60248201526c24b73b30b634b21030b236b4b760991b6044820152606401610416565b600780546001600160a01b0319166001600160a01b0392909216919091179055565b6007546001600160a01b03163314610a0b5760405162461bcd60e51b815260206004820152601a60248201527f4f6666696365724d756c74695369673a206e6f742061646d696e0000000000006044820152606401610416565b60038210610a5b5760405162461bcd60e51b815260206004820152601d60248201527f4f6666696365724d756c74695369673a20696e76616c696420736c6f740000006044820152606401610416565b6001600160a01b038116610ab15760405162461bcd60e51b815260206004820181905260248201527f4f6666696365724d756c74695369673a20696e76616c696420616464726573736044820152606401610416565b6001600160a01b0381165f9081526003602052604090205460ff1615610b255760405162461bcd60e51b815260206004820152602360248201527f4f6666696365724d756c74695369673a20616c726561647920616e206f66666960448201526231b2b960e91b6064820152608401610416565b5f808360038110610b3857610b38611428565b01546001600160a01b03165f818152600360208181526040808420805460ff1916905560049091528220829055919250839185908110610b7a57610b7a611428565b0180546001600160a01b0319166001600160a01b039283161790558281165f818152600360209081526040808320805460ff19166001179055600490915280822087905551919284169186917f7647d26251bcde8c943863ed0b08a33da2d729a69e240bdf6496983d26d94e9e91a4505050565b6001600160a01b0381165f9081526003602052604081205460ff16610c465760405162461bcd60e51b815260206004820152600e60248201526d2737ba1030b71037b33334b1b2b960911b6044820152606401610416565b506001600160a01b03165f9081526004602052604090205490565b5f818152600860205260408120600581015482918291829182918291829162010000900460ff16610cc75760405162461bcd60e51b815260206004820152601060248201526f14995d9a595dc81b9bdd08199bdd5b9960821b6044820152606401610416565b80546001820154600283015460038401546004850154600590950154939d929c50909a50985091965060ff8082169650610100909104169350915050565b335f9081526003602052604090205460ff16610d335760405162461bcd60e51b8152600401610416906112c9565b5f81815260086020526040902060050154819062010000900460ff16610d6b5760405162461bcd60e51b815260040161041690611300565b5f82815260086020526040902060050154829060ff1615610d9e5760405162461bcd60e51b815260040161041690611341565b5f81815260086020526040902060050154610100900460ff1615610dd45760405162461bcd60e51b815260040161041690611382565b610ddc6110ae565b5f83815260086020526040812090335f90815260068301602052604090205460ff166002811115610e0f57610e0f61126b565b14610e5c5760405162461bcd60e51b815260206004820152601e60248201527f4f6666696365724d756c74695369673a20616c726561647920766f74656400006044820152606401610416565b335f9081526006820160205260408120805460ff1916600117905560038201805491610e87836112a5565b9190505550336001600160a01b0316847ff4ca63bbdfb9c5c949703efb32c92f969697fdcfc926323a2b0edb23df312f1e8360030154604051610ecc91815260200190565b60405180910390a36002816003015410610f875760058101805460ff1916600190811790915581549082015460405186907f403aee8da5a52536925df29f507bd0d4f8dcdcbd8ccf2adcbdc92f82f39ce776905f90a4600554600182015460405163782eaba960e11b81526001600160a01b039092169163f05d575291610f599160040190815260200190565b5f604051808303815f87803b158015610f70575f80fd5b505af1158015610f82573d5f803e3d5ffd5b505050505b50610f9e60015f8051602061143d83398151915255565b505050565b5f8281526008602052604081206005015462010000900460ff16610ffc5760405162461bcd60e51b815260206004820152601060248201526f14995d9a595dc81b9bdd08199bdd5b9960821b6044820152606401610416565b505f8281526008602090815260408083206001600160a01b038516845260060190915290205460ff1692915050565b335f9081526003602052604090205460ff166110595760405162461bcd60e51b8152600401610416906112c9565b60065460405163291fdf8f60e01b8152600481018390526001600160a01b039091169063291fdf8f906024015f604051808303815f87803b15801561109c575f80fd5b505af11580156108e8573d5f803e3d5ffd5b6110b66110c9565b60025f8051602061143d83398151915255565b5f8051602061143d833981519152546002036110f857604051633ee5aeb560e01b815260040160405180910390fd5b565b60405180606001604052806003906020820280368337509192915050565b6060810181835f5b60038110156111485781516001600160a01b0316835260209283019290910190600101611120565b50505092915050565b5f60208284031215611161575f80fd5b5035919050565b5f805f6060848603121561117a575f80fd5b505081359360208301359350604090920135919050565b80356001600160a01b03811681146111a7575f80fd5b919050565b5f602082840312156111bc575f80fd5b6111c582611191565b9392505050565b5f805f604084860312156111de575f80fd5b83359250602084013567ffffffffffffffff808211156111fc575f80fd5b818601915086601f83011261120f575f80fd5b81358181111561121d575f80fd5b87602082850101111561122e575f80fd5b6020830194508093505050509250925092565b5f8060408385031215611252575f80fd5b8235915061126260208401611191565b90509250929050565b634e487b7160e01b5f52602160045260245ffd5b602081016003831061129f57634e487b7160e01b5f52602160045260245ffd5b91905290565b5f600182016112c257634e487b7160e01b5f52601160045260245ffd5b5060010190565b6020808252601f908201527f4f6666696365724d756c74695369673a206e6f7420616e206f66666963657200604082015260600190565b60208082526021908201527f4f6666696365724d756c74695369673a20726576696577206e6f7420666f756e6040820152601960fa1b606082015260800190565b60208082526021908201527f4f6666696365724d756c74695369673a20616c726561647920657865637574656040820152601960fa1b606082015260800190565b60208082526021908201527f4f6666696365724d756c74695369673a20616c72656164792072656a656374656040820152601960fa1b606082015260800190565b81835281816020850137505f828201602090810191909152601f909101601f19169091010190565b602081525f6113fe6020830184866113c3565b949350505050565b838152604060208201525f61141f6040830184866113c3565b95945050505050565b634e487b7160e01b5f52603260045260245ffdfe9b779b17422d0df92223018b32b4d1fa46e071723d6817e2486d003becc55f00a264697066735822122040a9cfcad96ec351e22e7e1eab63fb95da32bea1d5e61c42e7e362a0fbcbcb2c64736f6c63430008180033","opcodes":"PUSH1 0x80 PUSH1 0x40 MSTORE CALLVALUE DUP1 ISZERO PUSH3 0x10 JUMPI PUSH0 DUP1 REVERT JUMPDEST POP PUSH1 0x40 MLOAD PUSH3 0x1820 CODESIZE SUB DUP1 PUSH3 0x1820 DUP4 CODECOPY DUP2 ADD PUSH1 0x40 DUP2 SWAP1 MSTORE PUSH3 0x33 SWAP2 PUSH3 0x2C0 JUMP JUMPDEST PUSH1 0x1 PUSH32 0x9B779B17422D0DF92223018B32B4D1FA46E071723D6817E2486D003BECC55F00 SSTORE PUSH1 0x1 PUSH1 0x1 PUSH1 0xA0 SHL SUB DUP3 AND PUSH3 0xB3 JUMPI PUSH1 0x40 MLOAD PUSH3 0x461BCD PUSH1 0xE5 SHL DUP2 MSTORE PUSH1 0x20 PUSH1 0x4 DUP3 ADD MSTORE PUSH1 0x19 PUSH1 0x24 DUP3 ADD MSTORE PUSH32 0x496E76616C6964207472616E7366657220636F6E747261637400000000000000 PUSH1 0x44 DUP3 ADD MSTORE PUSH1 0x64 ADD JUMPDEST PUSH1 0x40 MLOAD DUP1 SWAP2 SUB SWAP1 REVERT JUMPDEST PUSH1 0x1 PUSH1 0x1 PUSH1 0xA0 SHL SUB DUP2 AND PUSH3 0x10B JUMPI PUSH1 0x40 MLOAD PUSH3 0x461BCD PUSH1 0xE5 SHL DUP2 MSTORE PUSH1 0x20 PUSH1 0x4 DUP3 ADD MSTORE PUSH1 0x19 PUSH1 0x24 DUP3 ADD MSTORE PUSH32 0x496E76616C696420726567697374727920636F6E747261637400000000000000 PUSH1 0x44 DUP3 ADD MSTORE PUSH1 0x64 ADD PUSH3 0xAA JUMP JUMPDEST PUSH0 JUMPDEST PUSH1 0x3 DUP2 LT ISZERO PUSH3 0x24C JUMPI PUSH0 DUP5 DUP3 PUSH1 0x3 DUP2 LT PUSH3 0x12D JUMPI PUSH3 0x12D PUSH3 0x36C JUMP JUMPDEST PUSH1 0x20 MUL ADD MLOAD SWAP1 POP PUSH1 0x1 PUSH1 0x1 PUSH1 0xA0 SHL SUB DUP2 AND PUSH3 0x18C JUMPI PUSH1 0x40 MLOAD PUSH3 0x461BCD PUSH1 0xE5 SHL DUP2 MSTORE PUSH1 0x20 PUSH1 0x4 DUP3 ADD MSTORE PUSH1 0x17 PUSH1 0x24 DUP3 ADD MSTORE PUSH32 0x496E76616C6964206F6666696365722061646472657373000000000000000000 PUSH1 0x44 DUP3 ADD MSTORE PUSH1 0x64 ADD PUSH3 0xAA JUMP JUMPDEST PUSH1 0x1 PUSH1 0x1 PUSH1 0xA0 SHL SUB DUP2 AND PUSH0 SWAP1 DUP2 MSTORE PUSH1 0x3 PUSH1 0x20 MSTORE PUSH1 0x40 SWAP1 KECCAK256 SLOAD PUSH1 0xFF AND ISZERO PUSH3 0x1EA JUMPI PUSH1 0x40 MLOAD PUSH3 0x461BCD PUSH1 0xE5 SHL DUP2 MSTORE PUSH1 0x20 PUSH1 0x4 DUP3 ADD MSTORE PUSH1 0x11 PUSH1 0x24 DUP3 ADD MSTORE PUSH17 0x223AB83634B1B0BA329037B33334B1B2B9 PUSH1 0x79 SHL PUSH1 0x44 DUP3 ADD MSTORE PUSH1 0x64 ADD PUSH3 0xAA JUMP JUMPDEST DUP1 PUSH0 DUP4 PUSH1 0x3 DUP2 LT PUSH3 0x200 JUMPI PUSH3 0x200 PUSH3 0x36C JUMP JUMPDEST ADD DUP1 SLOAD PUSH1 0x1 PUSH1 0x1 PUSH1 0xA0 SHL SUB NOT AND PUSH1 0x1 PUSH1 0x1 PUSH1 0xA0 SHL SUB SWAP3 DUP4 AND OR SWAP1 SSTORE AND PUSH0 SWAP1 DUP2 MSTORE PUSH1 0x3 PUSH1 0x20 SWAP1 DUP2 MSTORE PUSH1 0x40 DUP1 DUP4 KECCAK256 DUP1 SLOAD PUSH1 0xFF NOT AND PUSH1 0x1 SWAP1 DUP2 OR SWAP1 SWAP2 SSTORE PUSH1 0x4 SWAP1 SWAP3 MSTORE SWAP1 SWAP2 KECCAK256 DUP3 SWAP1 SSTORE ADD PUSH3 0x10D JUMP JUMPDEST POP PUSH1 0x5 DUP1 SLOAD PUSH1 0x1 PUSH1 0x1 PUSH1 0xA0 SHL SUB SWAP4 DUP5 AND PUSH1 0x1 PUSH1 0x1 PUSH1 0xA0 SHL SUB NOT SWAP2 DUP3 AND OR SWAP1 SWAP2 SSTORE PUSH1 0x6 DUP1 SLOAD SWAP3 SWAP1 SWAP4 AND SWAP2 DUP2 AND SWAP2 SWAP1 SWAP2 OR SWAP1 SWAP2 SSTORE PUSH1 0x7 DUP1 SLOAD SWAP1 SWAP2 AND CALLER OR SWAP1 SSTORE POP PUSH3 0x380 JUMP JUMPDEST PUSH4 0x4E487B71 PUSH1 0xE0 SHL PUSH0 MSTORE PUSH1 0x41 PUSH1 0x4 MSTORE PUSH1 0x24 PUSH0 REVERT JUMPDEST DUP1 MLOAD PUSH1 0x1 PUSH1 0x1 PUSH1 0xA0 SHL SUB DUP2 AND DUP2 EQ PUSH3 0x2BB JUMPI PUSH0 DUP1 REVERT JUMPDEST SWAP2 SWAP1 POP JUMP JUMPDEST PUSH0 DUP1 PUSH0 PUSH1 0xA0 DUP5 DUP7 SUB SLT ISZERO PUSH3 0x2D3 JUMPI PUSH0 DUP1 REVERT JUMPDEST DUP5 PUSH1 0x1F DUP6 ADD SLT PUSH3 0x2E2 JUMPI PUSH0 DUP1 REVERT JUMPDEST PUSH1 0x40 MLOAD PUSH1 0x60 DUP2 ADD PUSH1 0x1 PUSH1 0x1 PUSH1 0x40 SHL SUB DUP2 GT DUP3 DUP3 LT OR ISZERO PUSH3 0x307 JUMPI PUSH3 0x307 PUSH3 0x290 JUMP JUMPDEST PUSH1 0x40 MSTORE DUP1 PUSH1 0x60 DUP7 ADD DUP8 DUP2 GT ISZERO PUSH3 0x31C JUMPI PUSH0 DUP1 REVERT JUMPDEST DUP7 JUMPDEST DUP2 DUP2 LT ISZERO PUSH3 0x341 JUMPI PUSH3 0x332 DUP2 PUSH3 0x2A4 JUMP JUMPDEST DUP4 MSTORE PUSH1 0x20 SWAP3 DUP4 ADD SWAP3 ADD PUSH3 0x31E JUMP JUMPDEST POP DUP3 SWAP6 POP PUSH3 0x350 DUP2 PUSH3 0x2A4 JUMP JUMPDEST SWAP5 POP POP POP POP PUSH3 0x363 PUSH1 0x80 DUP6 ADD PUSH3 0x2A4 JUMP JUMPDEST SWAP1 POP SWAP3 POP SWAP3 POP SWAP3 JUMP JUMPDEST PUSH4 0x4E487B71 PUSH1 0xE0 SHL PUSH0 MSTORE PUSH1 0x32 PUSH1 0x4 MSTORE PUSH1 0x24 PUSH0 REVERT JUMPDEST PUSH2 0x1492 DUP1 PUSH3 0x38E PUSH0 CODECOPY PUSH0 RETURN INVALID PUSH1 0x80 PUSH1 0x40 MSTORE CALLVALUE DUP1 ISZERO PUSH2 0xF JUMPI PUSH0 DUP1 REVERT JUMPDEST POP PUSH1 0x4 CALLDATASIZE LT PUSH2 0x132 JUMPI PUSH0 CALLDATALOAD PUSH1 0xE0 SHR DUP1 PUSH4 0x7BC39341 GT PUSH2 0xB4 JUMPI DUP1 PUSH4 0xBC3F931F GT PUSH2 0x79 JUMPI DUP1 PUSH4 0xBC3F931F EQ PUSH2 0x2D4 JUMPI DUP1 PUSH4 0xCA057814 EQ PUSH2 0x2F4 JUMPI DUP1 PUSH4 0xDE591BCF EQ PUSH2 0x313 JUMPI DUP1 PUSH4 0xEFF5924F EQ PUSH2 0x326 JUMPI DUP1 PUSH4 0xF851A440 EQ PUSH2 0x32F JUMPI DUP1 PUSH4 0xFDC42E66 EQ PUSH2 0x342 JUMPI PUSH0 DUP1 REVERT JUMPDEST DUP1 PUSH4 0x7BC39341 EQ PUSH2 0x23C JUMPI DUP1 PUSH4 0x8CC65214 EQ PUSH2 0x24F JUMPI DUP1 PUSH4 0x989CB1A8 EQ PUSH2 0x262 JUMPI DUP1 PUSH4 0x990581B6 EQ PUSH2 0x275 JUMPI DUP1 PUSH4 0xB759F954 EQ PUSH2 0x2C1 JUMPI PUSH0 DUP1 REVERT JUMPDEST DUP1 PUSH4 0x6816442D GT PUSH2 0xFA JUMPI DUP1 PUSH4 0x6816442D EQ PUSH2 0x1C7 JUMPI DUP1 PUSH4 0x6B291D9F EQ PUSH2 0x1F9 JUMPI DUP1 PUSH4 0x71D68A97 EQ PUSH2 0x20C JUMPI DUP1 PUSH4 0x75829DEF EQ PUSH2 0x221 JUMPI DUP1 PUSH4 0x785FFB37 EQ PUSH2 0x234 JUMPI PUSH0 DUP1 REVERT JUMPDEST DUP1 PUSH4 0xF7151DC EQ PUSH2 0x136 JUMPI DUP1 PUSH4 0x13CF6D3E EQ PUSH2 0x154 JUMPI DUP1 PUSH4 0x195EE0B6 EQ PUSH2 0x181 JUMPI DUP1 PUSH4 0x28C1F99B EQ PUSH2 0x194 JUMPI DUP1 PUSH4 0x524C5379 EQ PUSH2 0x1BF JUMPI JUMPDEST PUSH0 DUP1 REVERT JUMPDEST PUSH2 0x13E PUSH2 0x361 JUMP JUMPDEST PUSH1 0x40 MLOAD PUSH2 0x14B SWAP2 SWAP1 PUSH2 0x1118 JUMP JUMPDEST PUSH1 0x40 MLOAD DUP1 SWAP2 SUB SWAP1 RETURN JUMPDEST PUSH2 0x173 PUSH2 0x162 CALLDATASIZE PUSH1 0x4 PUSH2 0x1151 JUMP JUMPDEST PUSH1 0xA PUSH1 0x20 MSTORE PUSH0 SWAP1 DUP2 MSTORE PUSH1 0x40 SWAP1 KECCAK256 SLOAD DUP2 JUMP JUMPDEST PUSH1 0x40 MLOAD SWAP1 DUP2 MSTORE PUSH1 0x20 ADD PUSH2 0x14B JUMP JUMPDEST PUSH2 0x173 PUSH2 0x18F CALLDATASIZE PUSH1 0x4 PUSH2 0x1168 JUMP JUMPDEST PUSH2 0x3A5 JUMP JUMPDEST PUSH1 0x6 SLOAD PUSH2 0x1A7 SWAP1 PUSH1 0x1 PUSH1 0x1 PUSH1 0xA0 SHL SUB AND DUP2 JUMP JUMPDEST PUSH1 0x40 MLOAD PUSH1 0x1 PUSH1 0x1 PUSH1 0xA0 SHL SUB SWAP1 SWAP2 AND DUP2 MSTORE PUSH1 0x20 ADD PUSH2 0x14B JUMP JUMPDEST PUSH2 0x173 PUSH1 0x3 DUP2 JUMP JUMPDEST PUSH2 0x1E9 PUSH2 0x1D5 CALLDATASIZE PUSH1 0x4 PUSH2 0x11AC JUMP JUMPDEST PUSH1 0x3 PUSH1 0x20 MSTORE PUSH0 SWAP1 DUP2 MSTORE PUSH1 0x40 SWAP1 KECCAK256 SLOAD PUSH1 0xFF AND DUP2 JUMP JUMPDEST PUSH1 0x40 MLOAD SWAP1 ISZERO ISZERO DUP2 MSTORE PUSH1 0x20 ADD PUSH2 0x14B JUMP JUMPDEST PUSH2 0x1A7 PUSH2 0x207 CALLDATASIZE PUSH1 0x4 PUSH2 0x1151 JUMP JUMPDEST PUSH2 0x536 JUMP JUMPDEST PUSH2 0x21F PUSH2 0x21A CALLDATASIZE PUSH1 0x4 PUSH2 0x11CC JUMP JUMPDEST PUSH2 0x554 JUMP JUMPDEST STOP JUMPDEST PUSH2 0x21F PUSH2 0x22F CALLDATASIZE PUSH1 0x4 PUSH2 0x11AC JUMP JUMPDEST PUSH2 0x8EF JUMP JUMPDEST PUSH2 0x173 PUSH1 0x2 DUP2 JUMP JUMPDEST PUSH1 0x5 SLOAD PUSH2 0x1A7 SWAP1 PUSH1 0x1 PUSH1 0x1 PUSH1 0xA0 SHL SUB AND DUP2 JUMP JUMPDEST PUSH2 0x21F PUSH2 0x25D CALLDATASIZE PUSH1 0x4 PUSH2 0x1241 JUMP JUMPDEST PUSH2 0x9B1 JUMP JUMPDEST PUSH2 0x173 PUSH2 0x270 CALLDATASIZE PUSH1 0x4 PUSH2 0x11AC JUMP JUMPDEST PUSH2 0xBEE JUMP JUMPDEST PUSH2 0x288 PUSH2 0x283 CALLDATASIZE PUSH1 0x4 PUSH2 0x1151 JUMP JUMPDEST PUSH2 0xC61 JUMP JUMPDEST PUSH1 0x40 DUP1 MLOAD SWAP8 DUP9 MSTORE PUSH1 0x20 DUP9 ADD SWAP7 SWAP1 SWAP7 MSTORE SWAP5 DUP7 ADD SWAP4 SWAP1 SWAP4 MSTORE PUSH1 0x60 DUP6 ADD SWAP2 SWAP1 SWAP2 MSTORE PUSH1 0x80 DUP5 ADD MSTORE ISZERO ISZERO PUSH1 0xA0 DUP4 ADD MSTORE ISZERO ISZERO PUSH1 0xC0 DUP3 ADD MSTORE PUSH1 0xE0 ADD PUSH2 0x14B JUMP JUMPDEST PUSH2 0x21F PUSH2 0x2CF CALLDATASIZE PUSH1 0x4 PUSH2 0x1151 JUMP JUMPDEST PUSH2 0xD05 JUMP JUMPDEST PUSH2 0x2E7 PUSH2 0x2E2 CALLDATASIZE PUSH1 0x4 PUSH2 0x1241 JUMP JUMPDEST PUSH2 0xFA3 JUMP JUMPDEST PUSH1 0x40 MLOAD PUSH2 0x14B SWAP2 SWAP1 PUSH2 0x127F JUMP JUMPDEST PUSH2 0x173 PUSH2 0x302 CALLDATASIZE PUSH1 0x4 PUSH2 0x1151 JUMP JUMPDEST PUSH0 SWAP1 DUP2 MSTORE PUSH1 0xA PUSH1 0x20 MSTORE PUSH1 0x40 SWAP1 KECCAK256 SLOAD SWAP1 JUMP JUMPDEST PUSH2 0x21F PUSH2 0x321 CALLDATASIZE PUSH1 0x4 PUSH2 0x1151 JUMP JUMPDEST PUSH2 0x102B JUMP JUMPDEST PUSH2 0x173 PUSH1 0x9 SLOAD DUP2 JUMP JUMPDEST PUSH1 0x7 SLOAD PUSH2 0x1A7 SWAP1 PUSH1 0x1 PUSH1 0x1 PUSH1 0xA0 SHL SUB AND DUP2 JUMP JUMPDEST PUSH2 0x173 PUSH2 0x350 CALLDATASIZE PUSH1 0x4 PUSH2 0x11AC JUMP JUMPDEST PUSH1 0x4 PUSH1 0x20 MSTORE PUSH0 SWAP1 DUP2 MSTORE PUSH1 0x40 SWAP1 KECCAK256 SLOAD DUP2 JUMP JUMPDEST PUSH2 0x369 PUSH2 0x10FA JUMP JUMPDEST PUSH1 0x40 DUP1 MLOAD PUSH1 0x60 DUP2 ADD SWAP2 DUP3 SWAP1 MSTORE SWAP1 PUSH0 SWAP1 PUSH1 0x3 SWAP1 DUP3 DUP5 JUMPDEST DUP2 SLOAD PUSH1 0x1 PUSH1 0x1 PUSH1 0xA0 SHL SUB AND DUP2 MSTORE PUSH1 0x1 SWAP1 SWAP2 ADD SWAP1 PUSH1 0x20 ADD DUP1 DUP4 GT PUSH2 0x37E JUMPI POP POP POP POP POP SWAP1 POP SWAP1 JUMP JUMPDEST PUSH1 0x5 SLOAD PUSH0 SWAP1 PUSH1 0x1 PUSH1 0x1 PUSH1 0xA0 SHL SUB AND CALLER EQ PUSH2 0x41F JUMPI PUSH1 0x40 MLOAD PUSH3 0x461BCD PUSH1 0xE5 SHL DUP2 MSTORE PUSH1 0x20 PUSH1 0x4 DUP3 ADD MSTORE PUSH1 0x30 PUSH1 0x24 DUP3 ADD MSTORE PUSH32 0x4F6666696365724D756C74695369673A2063616C6C6572206973206E6F742074 PUSH1 0x44 DUP3 ADD MSTORE PUSH16 0x1C985B9CD9995C8818DBDB9D1C9858DD PUSH1 0x82 SHL PUSH1 0x64 DUP3 ADD MSTORE PUSH1 0x84 ADD JUMPDEST PUSH1 0x40 MLOAD DUP1 SWAP2 SUB SWAP1 REVERT JUMPDEST PUSH0 DUP5 DUP2 MSTORE PUSH1 0xA PUSH1 0x20 MSTORE PUSH1 0x40 SWAP1 KECCAK256 SLOAD ISZERO PUSH2 0x491 JUMPI PUSH1 0x40 MLOAD PUSH3 0x461BCD PUSH1 0xE5 SHL DUP2 MSTORE PUSH1 0x20 PUSH1 0x4 DUP3 ADD MSTORE PUSH1 0x2E PUSH1 0x24 DUP3 ADD MSTORE PUSH32 0x4F6666696365724D756C74695369673A2070726F706F73616C20616C72656164 PUSH1 0x44 DUP3 ADD MSTORE PUSH14 0x7920756E64657220726576696577 PUSH1 0x90 SHL PUSH1 0x64 DUP3 ADD MSTORE PUSH1 0x84 ADD PUSH2 0x416 JUMP JUMPDEST PUSH1 0x9 PUSH0 DUP2 SLOAD PUSH2 0x49F SWAP1 PUSH2 0x12A5 JUMP JUMPDEST SWAP2 DUP3 SWAP1 SSTORE POP PUSH0 DUP2 DUP2 MSTORE PUSH1 0x8 PUSH1 0x20 SWAP1 DUP2 MSTORE PUSH1 0x40 DUP1 DUP4 KECCAK256 DUP8 DUP2 SSTORE PUSH1 0x1 DUP2 ADD DUP10 SWAP1 SSTORE PUSH1 0x2 DUP2 ADD DUP8 SWAP1 SSTORE PUSH1 0x3 DUP2 ADD DUP5 SWAP1 SSTORE PUSH1 0x4 DUP2 ADD DUP5 SWAP1 SSTORE PUSH1 0x5 DUP2 ADD DUP1 SLOAD PUSH3 0xFFFFFF NOT AND PUSH3 0x10000 OR SWAP1 SSTORE DUP9 DUP5 MSTORE PUSH1 0xA DUP4 MSTORE SWAP3 DUP2 SWAP1 KECCAK256 DUP5 SWAP1 SSTORE MLOAD DUP6 DUP2 MSTORE SWAP3 SWAP4 POP SWAP1 SWAP2 DUP6 SWAP2 DUP8 SWAP2 DUP6 SWAP2 PUSH32 0x6CD8EFCFF54F475075FB4180DBF617B4B366C585FA513789C2D1AB9597F49DA3 SWAP2 ADD PUSH1 0x40 MLOAD DUP1 SWAP2 SUB SWAP1 LOG4 POP SWAP4 SWAP3 POP POP POP JUMP JUMPDEST PUSH0 DUP2 PUSH1 0x3 DUP2 LT PUSH2 0x544 JUMPI PUSH0 DUP1 REVERT JUMPDEST ADD SLOAD PUSH1 0x1 PUSH1 0x1 PUSH1 0xA0 SHL SUB AND SWAP1 POP DUP2 JUMP JUMPDEST CALLER PUSH0 SWAP1 DUP2 MSTORE PUSH1 0x3 PUSH1 0x20 MSTORE PUSH1 0x40 SWAP1 KECCAK256 SLOAD PUSH1 0xFF AND PUSH2 0x582 JUMPI PUSH1 0x40 MLOAD PUSH3 0x461BCD PUSH1 0xE5 SHL DUP2 MSTORE PUSH1 0x4 ADD PUSH2 0x416 SWAP1 PUSH2 0x12C9 JUMP JUMPDEST PUSH0 DUP4 DUP2 MSTORE PUSH1 0x8 PUSH1 0x20 MSTORE PUSH1 0x40 SWAP1 KECCAK256 PUSH1 0x5 ADD SLOAD DUP4 SWAP1 PUSH3 0x10000 SWAP1 DIV PUSH1 0xFF AND PUSH2 0x5BA JUMPI PUSH1 0x40 MLOAD PUSH3 0x461BCD PUSH1 0xE5 SHL DUP2 MSTORE PUSH1 0x4 ADD PUSH2 0x416 SWAP1 PUSH2 0x1300 JUMP JUMPDEST PUSH0 DUP5 DUP2 MSTORE PUSH1 0x8 PUSH1 0x20 MSTORE PUSH1 0x40 SWAP1 KECCAK256 PUSH1 0x5 ADD SLOAD DUP5 SWAP1 PUSH1 0xFF AND ISZERO PUSH2 0x5ED JUMPI PUSH1 0x40 MLOAD PUSH3 0x461BCD PUSH1 0xE5 SHL DUP2 MSTORE PUSH1 0x4 ADD PUSH2 0x416 SWAP1 PUSH2 0x1341 JUMP JUMPDEST PUSH0 DUP2 DUP2 MSTORE PUSH1 0x8 PUSH1 0x20 MSTORE PUSH1 0x40 SWAP1 KECCAK256 PUSH1 0x5 ADD SLOAD PUSH2 0x100 SWAP1 DIV PUSH1 0xFF AND ISZERO PUSH2 0x623 JUMPI PUSH1 0x40 MLOAD PUSH3 0x461BCD PUSH1 0xE5 SHL DUP2 MSTORE PUSH1 0x4 ADD PUSH2 0x416 SWAP1 PUSH2 0x1382 JUMP JUMPDEST PUSH2 0x62B PUSH2 0x10AE JUMP JUMPDEST DUP3 PUSH2 0x678 JUMPI PUSH1 0x40 MLOAD PUSH3 0x461BCD PUSH1 0xE5 SHL DUP2 MSTORE PUSH1 0x20 PUSH1 0x4 DUP3 ADD DUP2 SWAP1 MSTORE PUSH1 0x24 DUP3 ADD MSTORE PUSH32 0x4F6666696365724D756C74695369673A20726561736F6E207265717569726564 PUSH1 0x44 DUP3 ADD MSTORE PUSH1 0x64 ADD PUSH2 0x416 JUMP JUMPDEST PUSH2 0x1F4 DUP4 GT ISZERO PUSH2 0x6CA JUMPI PUSH1 0x40 MLOAD PUSH3 0x461BCD PUSH1 0xE5 SHL DUP2 MSTORE PUSH1 0x20 PUSH1 0x4 DUP3 ADD DUP2 SWAP1 MSTORE PUSH1 0x24 DUP3 ADD MSTORE PUSH32 0x4F6666696365724D756C74695369673A20726561736F6E20746F6F206C6F6E67 PUSH1 0x44 DUP3 ADD MSTORE PUSH1 0x64 ADD PUSH2 0x416 JUMP JUMPDEST PUSH0 DUP6 DUP2 MSTORE PUSH1 0x8 PUSH1 0x20 MSTORE PUSH1 0x40 DUP2 KECCAK256 SWAP1 CALLER PUSH0 SWAP1 DUP2 MSTORE PUSH1 0x6 DUP4 ADD PUSH1 0x20 MSTORE PUSH1 0x40 SWAP1 KECCAK256 SLOAD PUSH1 0xFF AND PUSH1 0x2 DUP2 GT ISZERO PUSH2 0x6FD JUMPI PUSH2 0x6FD PUSH2 0x126B JUMP JUMPDEST EQ PUSH2 0x74A JUMPI PUSH1 0x40 MLOAD PUSH3 0x461BCD PUSH1 0xE5 SHL DUP2 MSTORE PUSH1 0x20 PUSH1 0x4 DUP3 ADD MSTORE PUSH1 0x1E PUSH1 0x24 DUP3 ADD MSTORE PUSH32 0x4F6666696365724D756C74695369673A20616C726561647920766F7465640000 PUSH1 0x44 DUP3 ADD MSTORE PUSH1 0x64 ADD PUSH2 0x416 JUMP JUMPDEST CALLER PUSH0 SWAP1 DUP2 MSTORE PUSH1 0x6 DUP3 ADD PUSH1 0x20 MSTORE PUSH1 0x40 DUP2 KECCAK256 DUP1 SLOAD PUSH1 0xFF NOT AND PUSH1 0x2 OR SWAP1 SSTORE PUSH1 0x4 DUP3 ADD DUP1 SLOAD SWAP2 PUSH2 0x775 DUP4 PUSH2 0x12A5 JUMP JUMPDEST SWAP1 SWAP2 SSTORE POP POP PUSH1 0x5 DUP2 ADD DUP1 SLOAD PUSH2 0xFF00 NOT AND PUSH2 0x100 OR SWAP1 SSTORE PUSH1 0x40 MLOAD CALLER SWAP1 DUP8 SWAP1 PUSH32 0x51C2067E3084EA930F7C3155FAE3D3E45D384DC285775F71CBAA557D477DB347 SWAP1 PUSH2 0x7C1 SWAP1 DUP10 SWAP1 DUP10 SWAP1 PUSH2 0x13EB JUMP JUMPDEST PUSH1 0x40 MLOAD DUP1 SWAP2 SUB SWAP1 LOG3 DUP1 PUSH0 ADD SLOAD DUP2 PUSH1 0x1 ADD SLOAD DUP8 PUSH32 0xC3E9E35A67692A956367944BDDAAA09F078324C8B3E20BE3496A319316FBD839 DUP9 DUP9 PUSH1 0x40 MLOAD PUSH2 0x804 SWAP3 SWAP2 SWAP1 PUSH2 0x13EB JUMP JUMPDEST PUSH1 0x40 MLOAD DUP1 SWAP2 SUB SWAP1 LOG4 PUSH1 0x5 SLOAD PUSH1 0x1 DUP3 ADD SLOAD PUSH1 0x40 MLOAD PUSH4 0xE0A8F6F5 PUSH1 0xE0 SHL DUP2 MSTORE PUSH1 0x1 PUSH1 0x1 PUSH1 0xA0 SHL SUB SWAP1 SWAP3 AND SWAP2 PUSH4 0xE0A8F6F5 SWAP2 PUSH2 0x843 SWAP2 PUSH1 0x4 ADD SWAP1 DUP2 MSTORE PUSH1 0x20 ADD SWAP1 JUMP JUMPDEST PUSH0 PUSH1 0x40 MLOAD DUP1 DUP4 SUB DUP2 PUSH0 DUP8 DUP1 EXTCODESIZE ISZERO DUP1 ISZERO PUSH2 0x85A JUMPI PUSH0 DUP1 REVERT JUMPDEST POP GAS CALL ISZERO DUP1 ISZERO PUSH2 0x86C JUMPI RETURNDATASIZE PUSH0 DUP1 RETURNDATACOPY RETURNDATASIZE PUSH0 REVERT JUMPDEST POP POP PUSH1 0x6 SLOAD DUP4 SLOAD PUSH1 0x40 MLOAD PUSH4 0x986DDCCF PUSH1 0xE0 SHL DUP2 MSTORE PUSH1 0x1 PUSH1 0x1 PUSH1 0xA0 SHL SUB SWAP1 SWAP3 AND SWAP4 POP PUSH4 0x986DDCCF SWAP3 POP PUSH2 0x8A4 SWAP2 DUP10 SWAP1 DUP10 SWAP1 PUSH1 0x4 ADD PUSH2 0x1406 JUMP JUMPDEST PUSH0 PUSH1 0x40 MLOAD DUP1 DUP4 SUB DUP2 PUSH0 DUP8 DUP1 EXTCODESIZE ISZERO DUP1 ISZERO PUSH2 0x8BB JUMPI PUSH0 DUP1 REVERT JUMPDEST POP GAS CALL ISZERO DUP1 ISZERO PUSH2 0x8CD JUMPI RETURNDATASIZE PUSH0 DUP1 RETURNDATACOPY RETURNDATASIZE PUSH0 REVERT JUMPDEST POP POP POP POP POP PUSH2 0x8E8 PUSH1 0x1 PUSH0 DUP1 MLOAD PUSH1 0x20 PUSH2 0x143D DUP4 CODECOPY DUP2 MLOAD SWAP2 MSTORE SSTORE JUMP JUMPDEST POP POP POP POP POP JUMP JUMPDEST PUSH1 0x7 SLOAD PUSH1 0x1 PUSH1 0x1 PUSH1 0xA0 SHL SUB AND CALLER EQ PUSH2 0x949 JUMPI PUSH1 0x40 MLOAD PUSH3 0x461BCD PUSH1 0xE5 SHL DUP2 MSTORE PUSH1 0x20 PUSH1 0x4 DUP3 ADD MSTORE PUSH1 0x1A PUSH1 0x24 DUP3 ADD MSTORE PUSH32 0x4F6666696365724D756C74695369673A206E6F742061646D696E000000000000 PUSH1 0x44 DUP3 ADD MSTORE PUSH1 0x64 ADD PUSH2 0x416 JUMP JUMPDEST PUSH1 0x1 PUSH1 0x1 PUSH1 0xA0 SHL SUB DUP2 AND PUSH2 0x98F JUMPI PUSH1 0x40 MLOAD PUSH3 0x461BCD PUSH1 0xE5 SHL DUP2 MSTORE PUSH1 0x20 PUSH1 0x4 DUP3 ADD MSTORE PUSH1 0xD PUSH1 0x24 DUP3 ADD MSTORE PUSH13 0x24B73B30B634B21030B236B4B7 PUSH1 0x99 SHL PUSH1 0x44 DUP3 ADD MSTORE PUSH1 0x64 ADD PUSH2 0x416 JUMP JUMPDEST PUSH1 0x7 DUP1 SLOAD PUSH1 0x1 PUSH1 0x1 PUSH1 0xA0 SHL SUB NOT AND PUSH1 0x1 PUSH1 0x1 PUSH1 0xA0 SHL SUB SWAP3 SWAP1 SWAP3 AND SWAP2 SWAP1 SWAP2 OR SWAP1 SSTORE JUMP JUMPDEST PUSH1 0x7 SLOAD PUSH1 0x1 PUSH1 0x1 PUSH1 0xA0 SHL SUB AND CALLER EQ PUSH2 0xA0B JUMPI PUSH1 0x40 MLOAD PUSH3 0x461BCD PUSH1 0xE5 SHL DUP2 MSTORE PUSH1 0x20 PUSH1 0x4 DUP3 ADD MSTORE PUSH1 0x1A PUSH1 0x24 DUP3 ADD MSTORE PUSH32 0x4F6666696365724D756C74695369673A206E6F742061646D696E000000000000 PUSH1 0x44 DUP3 ADD MSTORE PUSH1 0x64 ADD PUSH2 0x416 JUMP JUMPDEST PUSH1 0x3 DUP3 LT PUSH2 0xA5B JUMPI PUSH1 0x40 MLOAD PUSH3 0x461BCD PUSH1 0xE5 SHL DUP2 MSTORE PUSH1 0x20 PUSH1 0x4 DUP3 ADD MSTORE PUSH1 0x1D PUSH1 0x24 DUP3 ADD MSTORE PUSH32 0x4F6666696365724D756C74695369673A20696E76616C696420736C6F74000000 PUSH1 0x44 DUP3 ADD MSTORE PUSH1 0x64 ADD PUSH2 0x416 JUMP JUMPDEST PUSH1 0x1 PUSH1 0x1 PUSH1 0xA0 SHL SUB DUP2 AND PUSH2 0xAB1 JUMPI PUSH1 0x40 MLOAD PUSH3 0x461BCD PUSH1 0xE5 SHL DUP2 MSTORE PUSH1 0x20 PUSH1 0x4 DUP3 ADD DUP2 SWAP1 MSTORE PUSH1 0x24 DUP3 ADD MSTORE PUSH32 0x4F6666696365724D756C74695369673A20696E76616C69642061646472657373 PUSH1 0x44 DUP3 ADD MSTORE PUSH1 0x64 ADD PUSH2 0x416 JUMP JUMPDEST PUSH1 0x1 PUSH1 0x1 PUSH1 0xA0 SHL SUB DUP2 AND PUSH0 SWAP1 DUP2 MSTORE PUSH1 0x3 PUSH1 0x20 MSTORE PUSH1 0x40 SWAP1 KECCAK256 SLOAD PUSH1 0xFF AND ISZERO PUSH2 0xB25 JUMPI PUSH1 0x40 MLOAD PUSH3 0x461BCD PUSH1 0xE5 SHL DUP2 MSTORE PUSH1 0x20 PUSH1 0x4 DUP3 ADD MSTORE PUSH1 0x23 PUSH1 0x24 DUP3 ADD MSTORE PUSH32 0x4F6666696365724D756C74695369673A20616C726561647920616E206F666669 PUSH1 0x44 DUP3 ADD MSTORE PUSH3 0x31B2B9 PUSH1 0xE9 SHL PUSH1 0x64 DUP3 ADD MSTORE PUSH1 0x84 ADD PUSH2 0x416 JUMP JUMPDEST PUSH0 DUP1 DUP4 PUSH1 0x3 DUP2 LT PUSH2 0xB38 JUMPI PUSH2 0xB38 PUSH2 0x1428 JUMP JUMPDEST ADD SLOAD PUSH1 0x1 PUSH1 0x1 PUSH1 0xA0 SHL SUB AND PUSH0 DUP2 DUP2 MSTORE PUSH1 0x3 PUSH1 0x20 DUP2 DUP2 MSTORE PUSH1 0x40 DUP1 DUP5 KECCAK256 DUP1 SLOAD PUSH1 0xFF NOT AND SWAP1 SSTORE PUSH1 0x4 SWAP1 SWAP2 MSTORE DUP3 KECCAK256 DUP3 SWAP1 SSTORE SWAP2 SWAP3 POP DUP4 SWAP2 DUP6 SWAP1 DUP2 LT PUSH2 0xB7A JUMPI PUSH2 0xB7A PUSH2 0x1428 JUMP JUMPDEST ADD DUP1 SLOAD PUSH1 0x1 PUSH1 0x1 PUSH1 0xA0 SHL SUB NOT AND PUSH1 0x1 PUSH1 0x1 PUSH1 0xA0 SHL SUB SWAP3 DUP4 AND OR SWAP1 SSTORE DUP3 DUP2 AND PUSH0 DUP2 DUP2 MSTORE PUSH1 0x3 PUSH1 0x20 SWAP1 DUP2 MSTORE PUSH1 0x40 DUP1 DUP4 KECCAK256 DUP1 SLOAD PUSH1 0xFF NOT AND PUSH1 0x1 OR SWAP1 SSTORE PUSH1 0x4 SWAP1 SWAP2 MSTORE DUP1 DUP3 KECCAK256 DUP8 SWAP1 SSTORE MLOAD SWAP2 SWAP3 DUP5 AND SWAP2 DUP7 SWAP2 PUSH32 0x7647D26251BCDE8C943863ED0B08A33DA2D729A69E240BDF6496983D26D94E9E SWAP2 LOG4 POP POP POP JUMP JUMPDEST PUSH1 0x1 PUSH1 0x1 PUSH1 0xA0 SHL SUB DUP2 AND PUSH0 SWAP1 DUP2 MSTORE PUSH1 0x3 PUSH1 0x20 MSTORE PUSH1 0x40 DUP2 KECCAK256 SLOAD PUSH1 0xFF AND PUSH2 0xC46 JUMPI PUSH1 0x40 MLOAD PUSH3 0x461BCD PUSH1 0xE5 SHL DUP2 MSTORE PUSH1 0x20 PUSH1 0x4 DUP3 ADD MSTORE PUSH1 0xE PUSH1 0x24 DUP3 ADD MSTORE PUSH14 0x2737BA1030B71037B33334B1B2B9 PUSH1 0x91 SHL PUSH1 0x44 DUP3 ADD MSTORE PUSH1 0x64 ADD PUSH2 0x416 JUMP JUMPDEST POP PUSH1 0x1 PUSH1 0x1 PUSH1 0xA0 SHL SUB AND PUSH0 SWAP1 DUP2 MSTORE PUSH1 0x4 PUSH1 0x20 MSTORE PUSH1 0x40 SWAP1 KECCAK256 SLOAD SWAP1 JUMP JUMPDEST PUSH0 DUP2 DUP2 MSTORE PUSH1 0x8 PUSH1 0x20 MSTORE PUSH1 0x40 DUP2 KECCAK256 PUSH1 0x5 DUP2 ADD SLOAD DUP3 SWAP2 DUP3 SWAP2 DUP3 SWAP2 DUP3 SWAP2 DUP3 SWAP2 DUP3 SWAP2 PUSH3 0x10000 SWAP1 DIV PUSH1 0xFF AND PUSH2 0xCC7 JUMPI PUSH1 0x40 MLOAD PUSH3 0x461BCD PUSH1 0xE5 SHL DUP2 MSTORE PUSH1 0x20 PUSH1 0x4 DUP3 ADD MSTORE PUSH1 0x10 PUSH1 0x24 DUP3 ADD MSTORE PUSH16 0x14995D9A595DC81B9BDD08199BDD5B99 PUSH1 0x82 SHL PUSH1 0x44 DUP3 ADD MSTORE PUSH1 0x64 ADD PUSH2 0x416 JUMP JUMPDEST DUP1 SLOAD PUSH1 0x1 DUP3 ADD SLOAD PUSH1 0x2 DUP4 ADD SLOAD PUSH1 0x3 DUP5 ADD SLOAD PUSH1 0x4 DUP6 ADD SLOAD PUSH1 0x5 SWAP1 SWAP6 ADD SLOAD SWAP4 SWAP14 SWAP3 SWAP13 POP SWAP1 SWAP11 POP SWAP9 POP SWAP2 SWAP7 POP PUSH1 0xFF DUP1 DUP3 AND SWAP7 POP PUSH2 0x100 SWAP1 SWAP2 DIV AND SWAP4 POP SWAP2 POP POP JUMP JUMPDEST CALLER PUSH0 SWAP1 DUP2 MSTORE PUSH1 0x3 PUSH1 0x20 MSTORE PUSH1 0x40 SWAP1 KECCAK256 SLOAD PUSH1 0xFF AND PUSH2 0xD33 JUMPI PUSH1 0x40 MLOAD PUSH3 0x461BCD PUSH1 0xE5 SHL DUP2 MSTORE PUSH1 0x4 ADD PUSH2 0x416 SWAP1 PUSH2 0x12C9 JUMP JUMPDEST PUSH0 DUP2 DUP2 MSTORE PUSH1 0x8 PUSH1 0x20 MSTORE PUSH1 0x40 SWAP1 KECCAK256 PUSH1 0x5 ADD SLOAD DUP2 SWAP1 PUSH3 0x10000 SWAP1 DIV PUSH1 0xFF AND PUSH2 0xD6B JUMPI PUSH1 0x40 MLOAD PUSH3 0x461BCD PUSH1 0xE5 SHL DUP2 MSTORE PUSH1 0x4 ADD PUSH2 0x416 SWAP1 PUSH2 0x1300 JUMP JUMPDEST PUSH0 DUP3 DUP2 MSTORE PUSH1 0x8 PUSH1 0x20 MSTORE PUSH1 0x40 SWAP1 KECCAK256 PUSH1 0x5 ADD SLOAD DUP3 SWAP1 PUSH1 0xFF AND ISZERO PUSH2 0xD9E JUMPI PUSH1 0x40 MLOAD PUSH3 0x461BCD PUSH1 0xE5 SHL DUP2 MSTORE PUSH1 0x4 ADD PUSH2 0x416 SWAP1 PUSH2 0x1341 JUMP JUMPDEST PUSH0 DUP2 DUP2 MSTORE PUSH1 0x8 PUSH1 0x20 MSTORE PUSH1 0x40 SWAP1 KECCAK256 PUSH1 0x5 ADD SLOAD PUSH2 0x100 SWAP1 DIV PUSH1 0xFF AND ISZERO PUSH2 0xDD4 JUMPI PUSH1 0x40 MLOAD PUSH3 0x461BCD PUSH1 0xE5 SHL DUP2 MSTORE PUSH1 0x4 ADD PUSH2 0x416 SWAP1 PUSH2 0x1382 JUMP JUMPDEST PUSH2 0xDDC PUSH2 0x10AE JUMP JUMPDEST PUSH0 DUP4 DUP2 MSTORE PUSH1 0x8 PUSH1 0x20 MSTORE PUSH1 0x40 DUP2 KECCAK256 SWAP1 CALLER PUSH0 SWAP1 DUP2 MSTORE PUSH1 0x6 DUP4 ADD PUSH1 0x20 MSTORE PUSH1 0x40 SWAP1 KECCAK256 SLOAD PUSH1 0xFF AND PUSH1 0x2 DUP2 GT ISZERO PUSH2 0xE0F JUMPI PUSH2 0xE0F PUSH2 0x126B JUMP JUMPDEST EQ PUSH2 0xE5C JUMPI PUSH1 0x40 MLOAD PUSH3 0x461BCD PUSH1 0xE5 SHL DUP2 MSTORE PUSH1 0x20 PUSH1 0x4 DUP3 ADD MSTORE PUSH1 0x1E PUSH1 0x24 DUP3 ADD MSTORE PUSH32 0x4F6666696365724D756C74695369673A20616C726561647920766F7465640000 PUSH1 0x44 DUP3 ADD MSTORE PUSH1 0x64 ADD PUSH2 0x416 JUMP JUMPDEST CALLER PUSH0 SWAP1 DUP2 MSTORE PUSH1 0x6 DUP3 ADD PUSH1 0x20 MSTORE PUSH1 0x40 DUP2 KECCAK256 DUP1 SLOAD PUSH1 0xFF NOT AND PUSH1 0x1 OR SWAP1 SSTORE PUSH1 0x3 DUP3 ADD DUP1 SLOAD SWAP2 PUSH2 0xE87 DUP4 PUSH2 0x12A5 JUMP JUMPDEST SWAP2 SWAP1 POP SSTORE POP CALLER PUSH1 0x1 PUSH1 0x1 PUSH1 0xA0 SHL SUB AND DUP5 PUSH32 0xF4CA63BBDFB9C5C949703EFB32C92F969697FDCFC926323A2B0EDB23DF312F1E DUP4 PUSH1 0x3 ADD SLOAD PUSH1 0x40 MLOAD PUSH2 0xECC SWAP2 DUP2 MSTORE PUSH1 0x20 ADD SWAP1 JUMP JUMPDEST PUSH1 0x40 MLOAD DUP1 SWAP2 SUB SWAP1 LOG3 PUSH1 0x2 DUP2 PUSH1 0x3 ADD SLOAD LT PUSH2 0xF87 JUMPI PUSH1 0x5 DUP2 ADD DUP1 SLOAD PUSH1 0xFF NOT AND PUSH1 0x1 SWAP1 DUP2 OR SWAP1 SWAP2 SSTORE DUP2 SLOAD SWAP1 DUP3 ADD SLOAD PUSH1 0x40 MLOAD DUP7 SWAP1 PUSH32 0x403AEE8DA5A52536925DF29F507BD0D4F8DCDCBD8CCF2ADCBDC92F82F39CE776 SWAP1 PUSH0 SWAP1 LOG4 PUSH1 0x5 SLOAD PUSH1 0x1 DUP3 ADD SLOAD PUSH1 0x40 MLOAD PUSH4 0x782EABA9 PUSH1 0xE1 SHL DUP2 MSTORE PUSH1 0x1 PUSH1 0x1 PUSH1 0xA0 SHL SUB SWAP1 SWAP3 AND SWAP2 PUSH4 0xF05D5752 SWAP2 PUSH2 0xF59 SWAP2 PUSH1 0x4 ADD SWAP1 DUP2 MSTORE PUSH1 0x20 ADD SWAP1 JUMP JUMPDEST PUSH0 PUSH1 0x40 MLOAD DUP1 DUP4 SUB DUP2 PUSH0 DUP8 DUP1 EXTCODESIZE ISZERO DUP1 ISZERO PUSH2 0xF70 JUMPI PUSH0 DUP1 REVERT JUMPDEST POP GAS CALL ISZERO DUP1 ISZERO PUSH2 0xF82 JUMPI RETURNDATASIZE PUSH0 DUP1 RETURNDATACOPY RETURNDATASIZE PUSH0 REVERT JUMPDEST POP POP POP POP JUMPDEST POP PUSH2 0xF9E PUSH1 0x1 PUSH0 DUP1 MLOAD PUSH1 0x20 PUSH2 0x143D DUP4 CODECOPY DUP2 MLOAD SWAP2 MSTORE SSTORE JUMP JUMPDEST POP POP POP JUMP JUMPDEST PUSH0 DUP3 DUP2 MSTORE PUSH1 0x8 PUSH1 0x20 MSTORE PUSH1 0x40 DUP2 KECCAK256 PUSH1 0x5 ADD SLOAD PUSH3 0x10000 SWAP1 DIV PUSH1 0xFF AND PUSH2 0xFFC JUMPI PUSH1 0x40 MLOAD PUSH3 0x461BCD PUSH1 0xE5 SHL DUP2 MSTORE PUSH1 0x20 PUSH1 0x4 DUP3 ADD MSTORE PUSH1 0x10 PUSH1 0x24 DUP3 ADD MSTORE PUSH16 0x14995D9A595DC81B9BDD08199BDD5B99 PUSH1 0x82 SHL PUSH1 0x44 DUP3 ADD MSTORE PUSH1 0x64 ADD PUSH2 0x416 JUMP JUMPDEST POP PUSH0 DUP3 DUP2 MSTORE PUSH1 0x8 PUSH1 0x20 SWAP1 DUP2 MSTORE PUSH1 0x40 DUP1 DUP4 KECCAK256 PUSH1 0x1 PUSH1 0x1 PUSH1 0xA0 SHL SUB DUP6 AND DUP5 MSTORE PUSH1 0x6 ADD SWAP1 SWAP2 MSTORE SWAP1 KECCAK256 SLOAD PUSH1 0xFF AND SWAP3 SWAP2 POP POP JUMP JUMPDEST CALLER PUSH0 SWAP1 DUP2 MSTORE PUSH1 0x3 PUSH1 0x20 MSTORE PUSH1 0x40 SWAP1 KECCAK256 SLOAD PUSH1 0xFF AND PUSH2 0x1059 JUMPI PUSH1 0x40 MLOAD PUSH3 0x461BCD PUSH1 0xE5 SHL DUP2 MSTORE PUSH1 0x4 ADD PUSH2 0x416 SWAP1 PUSH2 0x12C9 JUMP JUMPDEST PUSH1 0x6 SLOAD PUSH1 0x40 MLOAD PUSH4 0x291FDF8F PUSH1 0xE0 SHL DUP2 MSTORE PUSH1 0x4 DUP2 ADD DUP4 SWAP1 MSTORE PUSH1 0x1 PUSH1 0x1 PUSH1 0xA0 SHL SUB SWAP1 SWAP2 AND SWAP1 PUSH4 0x291FDF8F SWAP1 PUSH1 0x24 ADD PUSH0 PUSH1 0x40 MLOAD DUP1 DUP4 SUB DUP2 PUSH0 DUP8 DUP1 EXTCODESIZE ISZERO DUP1 ISZERO PUSH2 0x109C JUMPI PUSH0 DUP1 REVERT JUMPDEST POP GAS CALL ISZERO DUP1 ISZERO PUSH2 0x8E8 JUMPI RETURNDATASIZE PUSH0 DUP1 RETURNDATACOPY RETURNDATASIZE PUSH0 REVERT JUMPDEST PUSH2 0x10B6 PUSH2 0x10C9 JUMP JUMPDEST PUSH1 0x2 PUSH0 DUP1 MLOAD PUSH1 0x20 PUSH2 0x143D DUP4 CODECOPY DUP2 MLOAD SWAP2 MSTORE SSTORE JUMP JUMPDEST PUSH0 DUP1 MLOAD PUSH1 0x20 PUSH2 0x143D DUP4 CODECOPY DUP2 MLOAD SWAP2 MSTORE SLOAD PUSH1 0x2 SUB PUSH2 0x10F8 JUMPI PUSH1 0x40 MLOAD PUSH4 0x3EE5AEB5 PUSH1 0xE0 SHL DUP2 MSTORE PUSH1 0x4 ADD PUSH1 0x40 MLOAD DUP1 SWAP2 SUB SWAP1 REVERT JUMPDEST JUMP JUMPDEST PUSH1 0x40 MLOAD DUP1 PUSH1 0x60 ADD PUSH1 0x40 MSTORE DUP1 PUSH1 0x3 SWAP1 PUSH1 0x20 DUP3 MUL DUP1 CALLDATASIZE DUP4 CALLDATACOPY POP SWAP2 SWAP3 SWAP2 POP POP JUMP JUMPDEST PUSH1 0x60 DUP2 ADD DUP2 DUP4 PUSH0 JUMPDEST PUSH1 0x3 DUP2 LT ISZERO PUSH2 0x1148 JUMPI DUP2 MLOAD PUSH1 0x1 PUSH1 0x1 PUSH1 0xA0 SHL SUB AND DUP4 MSTORE PUSH1 0x20 SWAP3 DUP4 ADD SWAP3 SWAP1 SWAP2 ADD SWAP1 PUSH1 0x1 ADD PUSH2 0x1120 JUMP JUMPDEST POP POP POP SWAP3 SWAP2 POP POP JUMP JUMPDEST PUSH0 PUSH1 0x20 DUP3 DUP5 SUB SLT ISZERO PUSH2 0x1161 JUMPI PUSH0 DUP1 REVERT JUMPDEST POP CALLDATALOAD SWAP2 SWAP1 POP JUMP JUMPDEST PUSH0 DUP1 PUSH0 PUSH1 0x60 DUP5 DUP7 SUB SLT ISZERO PUSH2 0x117A JUMPI PUSH0 DUP1 REVERT JUMPDEST POP POP DUP2 CALLDATALOAD SWAP4 PUSH1 0x20 DUP4 ADD CALLDATALOAD SWAP4 POP PUSH1 0x40 SWAP1 SWAP3 ADD CALLDATALOAD SWAP2 SWAP1 POP JUMP JUMPDEST DUP1 CALLDATALOAD PUSH1 0x1 PUSH1 0x1 PUSH1 0xA0 SHL SUB DUP2 AND DUP2 EQ PUSH2 0x11A7 JUMPI PUSH0 DUP1 REVERT JUMPDEST SWAP2 SWAP1 POP JUMP JUMPDEST PUSH0 PUSH1 0x20 DUP3 DUP5 SUB SLT ISZERO PUSH2 0x11BC JUMPI PUSH0 DUP1 REVERT JUMPDEST PUSH2 0x11C5 DUP3 PUSH2 0x1191 JUMP JUMPDEST SWAP4 SWAP3 POP POP POP JUMP JUMPDEST PUSH0 DUP1 PUSH0 PUSH1 0x40 DUP5 DUP7 SUB SLT ISZERO PUSH2 0x11DE JUMPI PUSH0 DUP1 REVERT JUMPDEST DUP4 CALLDATALOAD SWAP3 POP PUSH1 0x20 DUP5 ADD CALLDATALOAD PUSH8 0xFFFFFFFFFFFFFFFF DUP1 DUP3 GT ISZERO PUSH2 0x11FC JUMPI PUSH0 DUP1 REVERT JUMPDEST DUP2 DUP7 ADD SWAP2 POP DUP7 PUSH1 0x1F DUP4 ADD SLT PUSH2 0x120F JUMPI PUSH0 DUP1 REVERT JUMPDEST DUP2 CALLDATALOAD DUP2 DUP2 GT ISZERO PUSH2 0x121D JUMPI PUSH0 DUP1 REVERT JUMPDEST DUP8 PUSH1 0x20 DUP3 DUP6 ADD ADD GT ISZERO PUSH2 0x122E JUMPI PUSH0 DUP1 REVERT JUMPDEST PUSH1 0x20 DUP4 ADD SWAP5 POP DUP1 SWAP4 POP POP POP POP SWAP3 POP SWAP3 POP SWAP3 JUMP JUMPDEST PUSH0 DUP1 PUSH1 0x40 DUP4 DUP6 SUB SLT ISZERO PUSH2 0x1252 JUMPI PUSH0 DUP1 REVERT JUMPDEST DUP3 CALLDATALOAD SWAP2 POP PUSH2 0x1262 PUSH1 0x20 DUP5 ADD PUSH2 0x1191 JUMP JUMPDEST SWAP1 POP SWAP3 POP SWAP3 SWAP1 POP JUMP JUMPDEST PUSH4 0x4E487B71 PUSH1 0xE0 SHL PUSH0 MSTORE PUSH1 0x21 PUSH1 0x4 MSTORE PUSH1 0x24 PUSH0 REVERT JUMPDEST PUSH1 0x20 DUP2 ADD PUSH1 0x3 DUP4 LT PUSH2 0x129F JUMPI PUSH4 0x4E487B71 PUSH1 0xE0 SHL PUSH0 MSTORE PUSH1 0x21 PUSH1 0x4 MSTORE PUSH1 0x24 PUSH0 REVERT JUMPDEST SWAP2 SWAP1 MSTORE SWAP1 JUMP JUMPDEST PUSH0 PUSH1 0x1 DUP3 ADD PUSH2 0x12C2 JUMPI PUSH4 0x4E487B71 PUSH1 0xE0 SHL PUSH0 MSTORE PUSH1 0x11 PUSH1 0x4 MSTORE PUSH1 0x24 PUSH0 REVERT JUMPDEST POP PUSH1 0x1 ADD SWAP1 JUMP JUMPDEST PUSH1 0x20 DUP1 DUP3 MSTORE PUSH1 0x1F SWAP1 DUP3 ADD MSTORE PUSH32 0x4F6666696365724D756C74695369673A206E6F7420616E206F66666963657200 PUSH1 0x40 DUP3 ADD MSTORE PUSH1 0x60 ADD SWAP1 JUMP JUMPDEST PUSH1 0x20 DUP1 DUP3 MSTORE PUSH1 0x21 SWAP1 DUP3 ADD MSTORE PUSH32 0x4F6666696365724D756C74695369673A20726576696577206E6F7420666F756E PUSH1 0x40 DUP3 ADD MSTORE PUSH1 0x19 PUSH1 0xFA SHL PUSH1 0x60 DUP3 ADD MSTORE PUSH1 0x80 ADD SWAP1 JUMP JUMPDEST PUSH1 0x20 DUP1 DUP3 MSTORE PUSH1 0x21 SWAP1 DUP3 ADD MSTORE PUSH32 0x4F6666696365724D756C74695369673A20616C72656164792065786563757465 PUSH1 0x40 DUP3 ADD MSTORE PUSH1 0x19 PUSH1 0xFA SHL PUSH1 0x60 DUP3 ADD MSTORE PUSH1 0x80 ADD SWAP1 JUMP JUMPDEST PUSH1 0x20 DUP1 DUP3 MSTORE PUSH1 0x21 SWAP1 DUP3 ADD MSTORE PUSH32 0x4F6666696365724D756C74695369673A20616C72656164792072656A65637465 PUSH1 0x40 DUP3 ADD MSTORE PUSH1 0x19 PUSH1 0xFA SHL PUSH1 0x60 DUP3 ADD MSTORE PUSH1 0x80 ADD SWAP1 JUMP JUMPDEST DUP2 DUP4 MSTORE DUP2 DUP2 PUSH1 0x20 DUP6 ADD CALLDATACOPY POP PUSH0 DUP3 DUP3 ADD PUSH1 0x20 SWAP1 DUP2 ADD SWAP2 SWAP1 SWAP2 MSTORE PUSH1 0x1F SWAP1 SWAP2 ADD PUSH1 0x1F NOT AND SWAP1 SWAP2 ADD ADD SWAP1 JUMP JUMPDEST PUSH1 0x20 DUP2 MSTORE PUSH0 PUSH2 0x13FE PUSH1 0x20 DUP4 ADD DUP5 DUP7 PUSH2 0x13C3 JUMP JUMPDEST SWAP5 SWAP4 POP POP POP POP JUMP JUMPDEST DUP4 DUP2 MSTORE PUSH1 0x40 PUSH1 0x20 DUP3 ADD MSTORE PUSH0 PUSH2 0x141F PUSH1 0x40 DUP4 ADD DUP5 DUP7 PUSH2 0x13C3 JUMP JUMPDEST SWAP6 SWAP5 POP POP POP POP POP JUMP JUMPDEST PUSH4 0x4E487B71 PUSH1 0xE0 SHL PUSH0 MSTORE PUSH1 0x32 PUSH1 0x4 MSTORE PUSH1 0x24 PUSH0 REVERT INVALID SWAP12 PUSH24 0x9B17422D0DF92223018B32B4D1FA46E071723D6817E2486D STOP EXTCODESIZE 0xEC 0xC5 PUSH0 STOP LOG2 PUSH5 0x6970667358 0x22 SLT KECCAK256 BLOCKHASH 0xA9 0xCF 0xCA 0xD9 PUSH15 0xC351E22E7E1EAB63FB95DA32BEA1D5 0xE6 SHR TIMESTAMP 0xE7 0xE3 PUSH3 0xA0FBCB 0xCB 0x2C PUSH5 0x736F6C6343 STOP ADDMOD XOR STOP CALLER "},"methodIdentifiers":{"OFFICER_COUNT()":"524c5379","THRESHOLD()":"785ffb37","admin()":"f851a440","approve(uint256)":"b759f954","clearFreeze(bytes32)":"de591bcf","getOfficerIndex(address)":"989cb1a8","getOfficers()":"0f7151dc","getReview(uint256)":"990581b6","getReviewByProposal(uint256)":"ca057814","getVote(uint256,address)":"bc3f931f","isOfficer(address)":"6816442d","officerIndex(address)":"fdc42e66","officers(uint256)":"6b291d9f","proposalToReview(uint256)":"13cf6d3e","registryContract()":"28c1f99b","reject(uint256,string)":"71d68a97","reviewCount()":"eff5924f","rotateOfficer(uint256,address)":"8cc65214","submitForReview(uint256,bytes32,bytes32)":"195ee0b6","transferAdmin(address)":"75829def","transferContract()":"7bc39341"}}}}}