{
  "_format": "hh3-artifact-1",
  "contractName": "LandRegistry",
  "sourceName": "contracts/LandRegistry.sol",
  "abi": [
    {
      "inputs": [],
      "stateMutability": "nonpayable",
      "type": "constructor"
    },
    {
      "inputs": [
        {
          "internalType": "address",
          "name": "owner",
          "type": "address"
        }
      ],
      "name": "OwnableInvalidOwner",
      "type": "error"
    },
    {
      "inputs": [
        {
          "internalType": "address",
          "name": "account",
          "type": "address"
        }
      ],
      "name": "OwnableUnauthorizedAccount",
      "type": "error"
    },
    {
      "inputs": [],
      "name": "ReentrancyGuardReentrantCall",
      "type": "error"
    },
    {
      "anonymous": false,
      "inputs": [
        {
          "indexed": true,
          "internalType": "bytes32",
          "name": "landId",
          "type": "bytes32"
        },
        {
          "indexed": false,
          "internalType": "string",
          "name": "reason",
          "type": "string"
        },
        {
          "indexed": false,
          "internalType": "uint256",
          "name": "timestamp",
          "type": "uint256"
        }
      ],
      "name": "LandFrozen",
      "type": "event"
    },
    {
      "anonymous": false,
      "inputs": [
        {
          "indexed": true,
          "internalType": "bytes32",
          "name": "landId",
          "type": "bytes32"
        },
        {
          "indexed": true,
          "internalType": "address",
          "name": "owner",
          "type": "address"
        },
        {
          "indexed": false,
          "internalType": "string",
          "name": "ipfsCID",
          "type": "string"
        },
        {
          "indexed": false,
          "internalType": "uint256",
          "name": "timestamp",
          "type": "uint256"
        }
      ],
      "name": "LandRegistered",
      "type": "event"
    },
    {
      "anonymous": false,
      "inputs": [
        {
          "indexed": true,
          "internalType": "bytes32",
          "name": "landId",
          "type": "bytes32"
        },
        {
          "indexed": true,
          "internalType": "address",
          "name": "from",
          "type": "address"
        },
        {
          "indexed": true,
          "internalType": "address",
          "name": "to",
          "type": "address"
        },
        {
          "indexed": false,
          "internalType": "uint256",
          "name": "price",
          "type": "uint256"
        },
        {
          "indexed": false,
          "internalType": "bytes32",
          "name": "txRef",
          "type": "bytes32"
        }
      ],
      "name": "LandTransferred",
      "type": "event"
    },
    {
      "anonymous": false,
      "inputs": [
        {
          "indexed": true,
          "internalType": "bytes32",
          "name": "landId",
          "type": "bytes32"
        },
        {
          "indexed": false,
          "internalType": "uint256",
          "name": "timestamp",
          "type": "uint256"
        }
      ],
      "name": "LandUnfrozen",
      "type": "event"
    },
    {
      "anonymous": false,
      "inputs": [
        {
          "indexed": true,
          "internalType": "bytes32",
          "name": "landId",
          "type": "bytes32"
        },
        {
          "indexed": false,
          "internalType": "string",
          "name": "oldCID",
          "type": "string"
        },
        {
          "indexed": false,
          "internalType": "string",
          "name": "newCID",
          "type": "string"
        }
      ],
      "name": "MetadataUpdated",
      "type": "event"
    },
    {
      "anonymous": false,
      "inputs": [
        {
          "indexed": true,
          "internalType": "address",
          "name": "previousOwner",
          "type": "address"
        },
        {
          "indexed": true,
          "internalType": "address",
          "name": "newOwner",
          "type": "address"
        }
      ],
      "name": "OwnershipTransferred",
      "type": "event"
    },
    {
      "anonymous": false,
      "inputs": [
        {
          "indexed": true,
          "internalType": "address",
          "name": "wallet",
          "type": "address"
        }
      ],
      "name": "RegistrarAdded",
      "type": "event"
    },
    {
      "anonymous": false,
      "inputs": [
        {
          "indexed": true,
          "internalType": "address",
          "name": "wallet",
          "type": "address"
        }
      ],
      "name": "RegistrarRemoved",
      "type": "event"
    },
    {
      "inputs": [
        {
          "internalType": "address",
          "name": "wallet",
          "type": "address"
        }
      ],
      "name": "addRegistrar",
      "outputs": [],
      "stateMutability": "nonpayable",
      "type": "function"
    },
    {
      "inputs": [
        {
          "internalType": "bytes32",
          "name": "landId",
          "type": "bytes32"
        },
        {
          "internalType": "string",
          "name": "reason",
          "type": "string"
        }
      ],
      "name": "freezeLand",
      "outputs": [],
      "stateMutability": "nonpayable",
      "type": "function"
    },
    {
      "inputs": [
        {
          "internalType": "bytes32",
          "name": "landId",
          "type": "bytes32"
        }
      ],
      "name": "getLand",
      "outputs": [
        {
          "internalType": "address",
          "name": "_owner",
          "type": "address"
        },
        {
          "internalType": "string",
          "name": "_ipfsCID",
          "type": "string"
        },
        {
          "internalType": "uint256",
          "name": "_registeredAt",
          "type": "uint256"
        },
        {
          "internalType": "bool",
          "name": "_exists",
          "type": "bool"
        },
        {
          "internalType": "bool",
          "name": "_frozen",
          "type": "bool"
        },
        {
          "internalType": "string",
          "name": "_freezeReason",
          "type": "string"
        }
      ],
      "stateMutability": "view",
      "type": "function"
    },
    {
      "inputs": [
        {
          "internalType": "bytes32",
          "name": "landId",
          "type": "bytes32"
        }
      ],
      "name": "getMetadataHistory",
      "outputs": [
        {
          "internalType": "string[]",
          "name": "",
          "type": "string[]"
        }
      ],
      "stateMutability": "view",
      "type": "function"
    },
    {
      "inputs": [
        {
          "internalType": "address",
          "name": "_owner",
          "type": "address"
        }
      ],
      "name": "getOwnerLands",
      "outputs": [
        {
          "internalType": "bytes32[]",
          "name": "",
          "type": "bytes32[]"
        }
      ],
      "stateMutability": "view",
      "type": "function"
    },
    {
      "inputs": [
        {
          "internalType": "bytes32",
          "name": "landId",
          "type": "bytes32"
        }
      ],
      "name": "getTransferCount",
      "outputs": [
        {
          "internalType": "uint256",
          "name": "",
          "type": "uint256"
        }
      ],
      "stateMutability": "view",
      "type": "function"
    },
    {
      "inputs": [
        {
          "internalType": "bytes32",
          "name": "landId",
          "type": "bytes32"
        }
      ],
      "name": "getTransferHistory",
      "outputs": [
        {
          "components": [
            {
              "internalType": "address",
              "name": "from",
              "type": "address"
            },
            {
              "internalType": "address",
              "name": "to",
              "type": "address"
            },
            {
              "internalType": "uint256",
              "name": "price",
              "type": "uint256"
            },
            {
              "internalType": "uint256",
              "name": "timestamp",
              "type": "uint256"
            },
            {
              "internalType": "bytes32",
              "name": "txRef",
              "type": "bytes32"
            }
          ],
          "internalType": "struct LandRegistry.TransferRecord[]",
          "name": "",
          "type": "tuple[]"
        }
      ],
      "stateMutability": "view",
      "type": "function"
    },
    {
      "inputs": [
        {
          "internalType": "address",
          "name": "",
          "type": "address"
        }
      ],
      "name": "isRegistrar",
      "outputs": [
        {
          "internalType": "bool",
          "name": "",
          "type": "bool"
        }
      ],
      "stateMutability": "view",
      "type": "function"
    },
    {
      "inputs": [
        {
          "internalType": "bytes32",
          "name": "",
          "type": "bytes32"
        }
      ],
      "name": "lands",
      "outputs": [
        {
          "internalType": "address",
          "name": "owner",
          "type": "address"
        },
        {
          "internalType": "string",
          "name": "ipfsMetadataCID",
          "type": "string"
        },
        {
          "internalType": "uint256",
          "name": "registeredAt",
          "type": "uint256"
        },
        {
          "internalType": "bool",
          "name": "exists",
          "type": "bool"
        },
        {
          "internalType": "bool",
          "name": "frozen",
          "type": "bool"
        },
        {
          "internalType": "string",
          "name": "freezeReason",
          "type": "string"
        }
      ],
      "stateMutability": "view",
      "type": "function"
    },
    {
      "inputs": [
        {
          "internalType": "bytes32",
          "name": "",
          "type": "bytes32"
        },
        {
          "internalType": "uint256",
          "name": "",
          "type": "uint256"
        }
      ],
      "name": "metadataHistory",
      "outputs": [
        {
          "internalType": "string",
          "name": "",
          "type": "string"
        }
      ],
      "stateMutability": "view",
      "type": "function"
    },
    {
      "inputs": [],
      "name": "officerMultiSig",
      "outputs": [
        {
          "internalType": "address",
          "name": "",
          "type": "address"
        }
      ],
      "stateMutability": "view",
      "type": "function"
    },
    {
      "inputs": [],
      "name": "owner",
      "outputs": [
        {
          "internalType": "address",
          "name": "",
          "type": "address"
        }
      ],
      "stateMutability": "view",
      "type": "function"
    },
    {
      "inputs": [
        {
          "internalType": "address",
          "name": "",
          "type": "address"
        },
        {
          "internalType": "uint256",
          "name": "",
          "type": "uint256"
        }
      ],
      "name": "ownerLands",
      "outputs": [
        {
          "internalType": "bytes32",
          "name": "",
          "type": "bytes32"
        }
      ],
      "stateMutability": "view",
      "type": "function"
    },
    {
      "inputs": [
        {
          "internalType": "bytes32",
          "name": "landId",
          "type": "bytes32"
        },
        {
          "internalType": "string",
          "name": "ipfsCID",
          "type": "string"
        },
        {
          "internalType": "address",
          "name": "landOwner",
          "type": "address"
        }
      ],
      "name": "registerLand",
      "outputs": [],
      "stateMutability": "nonpayable",
      "type": "function"
    },
    {
      "inputs": [
        {
          "internalType": "address",
          "name": "wallet",
          "type": "address"
        }
      ],
      "name": "removeRegistrar",
      "outputs": [],
      "stateMutability": "nonpayable",
      "type": "function"
    },
    {
      "inputs": [],
      "name": "renounceOwnership",
      "outputs": [],
      "stateMutability": "nonpayable",
      "type": "function"
    },
    {
      "inputs": [
        {
          "internalType": "address",
          "name": "_officerMultiSig",
          "type": "address"
        }
      ],
      "name": "setOfficerMultiSig",
      "outputs": [],
      "stateMutability": "nonpayable",
      "type": "function"
    },
    {
      "inputs": [
        {
          "internalType": "address",
          "name": "_transfer",
          "type": "address"
        }
      ],
      "name": "setTransferContract",
      "outputs": [],
      "stateMutability": "nonpayable",
      "type": "function"
    },
    {
      "inputs": [],
      "name": "totalLands",
      "outputs": [
        {
          "internalType": "uint256",
          "name": "",
          "type": "uint256"
        }
      ],
      "stateMutability": "view",
      "type": "function"
    },
    {
      "inputs": [],
      "name": "transferContract",
      "outputs": [
        {
          "internalType": "address",
          "name": "",
          "type": "address"
        }
      ],
      "stateMutability": "view",
      "type": "function"
    },
    {
      "inputs": [
        {
          "internalType": "bytes32",
          "name": "",
          "type": "bytes32"
        },
        {
          "internalType": "uint256",
          "name": "",
          "type": "uint256"
        }
      ],
      "name": "transferHistory",
      "outputs": [
        {
          "internalType": "address",
          "name": "from",
          "type": "address"
        },
        {
          "internalType": "address",
          "name": "to",
          "type": "address"
        },
        {
          "internalType": "uint256",
          "name": "price",
          "type": "uint256"
        },
        {
          "internalType": "uint256",
          "name": "timestamp",
          "type": "uint256"
        },
        {
          "internalType": "bytes32",
          "name": "txRef",
          "type": "bytes32"
        }
      ],
      "stateMutability": "view",
      "type": "function"
    },
    {
      "inputs": [
        {
          "internalType": "bytes32",
          "name": "landId",
          "type": "bytes32"
        },
        {
          "internalType": "address",
          "name": "to",
          "type": "address"
        },
        {
          "internalType": "uint256",
          "name": "price",
          "type": "uint256"
        },
        {
          "internalType": "bytes32",
          "name": "txRef",
          "type": "bytes32"
        }
      ],
      "name": "transferLand",
      "outputs": [],
      "stateMutability": "nonpayable",
      "type": "function"
    },
    {
      "inputs": [
        {
          "internalType": "address",
          "name": "newOwner",
          "type": "address"
        }
      ],
      "name": "transferOwnership",
      "outputs": [],
      "stateMutability": "nonpayable",
      "type": "function"
    },
    {
      "inputs": [
        {
          "internalType": "bytes32",
          "name": "landId",
          "type": "bytes32"
        }
      ],
      "name": "unfreezeLand",
      "outputs": [],
      "stateMutability": "nonpayable",
      "type": "function"
    },
    {
      "inputs": [
        {
          "internalType": "bytes32",
          "name": "landId",
          "type": "bytes32"
        },
        {
          "internalType": "string",
          "name": "newIpfsCID",
          "type": "string"
        }
      ],
      "name": "updateMetadata",
      "outputs": [],
      "stateMutability": "nonpayable",
      "type": "function"
    }
  ],
  "bytecode": "0x608060405234801561000f575f80fd5b50338061003557604051631e4fbdf760e01b81525f600482015260240160405180910390fd5b61003e81610068565b5060017f9b779b17422d0df92223018b32b4d1fa46e071723d6817e2486d003becc55f00556100b7565b5f80546001600160a01b038381166001600160a01b0319831681178455604051919092169283917f8be0079c531659141344cd1fd0a4f28419497f9722a3daafe3b4186f6b6457e09190a35050565b6120ec806100c45f395ff3fe608060405234801561000f575f80fd5b506004361061016d575f3560e01c8063a451b775116100d9578063d0dea6e211610093578063e3911c761161006e578063e3911c76146103b1578063f2fde38b146103c4578063f987cd9e146103d7578063fb24cd9b146103ea575f80fd5b8063d0dea6e214610359578063d5db72eb1461036c578063d8a2b0501461039e575f80fd5b8063a451b775146102cd578063af35a5ea146102ed578063af92a69314610300578063ba904eed14610313578063bf5172d714610326578063c19c2e2314610346575f80fd5b80637bc393411161012a5780637bc39341146102395780638da5cb5b14610264578063986ddccf14610274578063996347b414610287578063a2c9d1f0146102a7578063a375765e146102ba575f80fd5b8063139e38b4146101715780631d8de0631461019f578063291fdf8f146101b65780635930479a146101cb5780636fb3207d14610211578063715018a614610231575b5f80fd5b61018461017f3660046119ad565b610409565b60405161019696959493929190611a07565b60405180910390f35b6101a860085481565b604051908152602001610196565b6101c96101c43660046119ad565b610560565b005b6101de6101d9366004611a5f565b6106a8565b604080516001600160a01b039687168152959094166020860152928401919091526060830152608082015260a001610196565b61022461021f3660046119ad565b6106ff565b6040516101969190611a7f565b6101c96107a7565b60065461024c906001600160a01b031681565b6040516001600160a01b039091168152602001610196565b5f546001600160a01b031661024c565b6101c9610282366004611b3d565b6107ba565b61029a6102953660046119ad565b6108eb565b6040516101969190611b85565b6101c96102b5366004611c02565b6109c5565b6101c96102c8366004611b3d565b610cd4565b6102e06102db366004611a5f565b610edd565b6040516101969190611c5c565b6101c96102fb366004611c75565b610f8e565b6101c961030e366004611cad565b611365565b6101c9610321366004611cad565b6113ff565b610339610334366004611cad565b61144f565b6040516101969190611cc6565b6101c9610354366004611cad565b6114b8565b6101a8610367366004611d09565b611571565b61038e61037a366004611cad565b60056020525f908152604090205460ff1681565b6040519015158152602001610196565b60075461024c906001600160a01b031681565b6101c96103bf366004611cad565b61159c565b6101c96103d2366004611cad565b611655565b6101846103e53660046119ad565b611692565b6101a86103f83660046119ad565b5f9081526002602052604090205490565b600160208190525f9182526040909120805491810180546001600160a01b039093169261043590611d31565b80601f016020809104026020016040519081016040528092919081815260200182805461046190611d31565b80156104ac5780601f10610483576101008083540402835291602001916104ac565b820191905f5260205f20905b81548152906001019060200180831161048f57829003601f168201915b505050600284015460038501546004860180549596929560ff80841696506101009093049092169350906104df90611d31565b80601f016020809104026020016040519081016040528092919081815260200182805461050b90611d31565b80156105565780601f1061052d57610100808354040283529160200191610556565b820191905f5260205f20905b81548152906001019060200180831161053957829003601f168201915b5050505050905086565b6007546001600160a01b031633146105935760405162461bcd60e51b815260040161058a90611d69565b60405180910390fd5b5f81815260016020526040902060030154819060ff166105c55760405162461bcd60e51b815260040161058a90611db4565b5f82815260016020526040902060030154610100900460ff1661062a5760405162461bcd60e51b815260206004820152601860248201527f4c616e6452656769737472793a206e6f742066726f7a656e0000000000000000604482015260640161058a565b5f82815260016020818152604080842060038101805461ff00191690558151808401909252848252938690529190526004909101906106699082611e55565b50817f2eac7e0a6148735aaa001c47473cc18b95ded74ff3bf75fc53de205c827a7c154260405161069c91815260200190565b60405180910390a25050565b6002602052815f5260405f2081815481106106c1575f80fd5b5f918252602090912060059091020180546001820154600283015460038401546004909401546001600160a01b039384169650929091169350919085565b606060025f8381526020019081526020015f20805480602002602001604051908101604052809291908181526020015f905b8282101561079c575f8481526020908190206040805160a0810182526005860290920180546001600160a01b03908116845260018083015490911684860152600282015492840192909252600381015460608401526004015460808301529083529092019101610731565b505050509050919050565b6107af611808565b6107b85f611834565b565b6007546001600160a01b031633146107e45760405162461bcd60e51b815260040161058a90611d69565b5f83815260016020526040902060030154839060ff166108165760405162461bcd60e51b815260040161058a90611db4565b5f84815260016020526040902060030154610100900460ff161561087c5760405162461bcd60e51b815260206004820152601c60248201527f4c616e6452656769737472793a20616c72656164792066726f7a656e00000000604482015260640161058a565b5f84815260016020526040902060038101805461ff0019166101001790556004016108a8838583611f15565b50837f87432286171204945114f2b00252300c4fc39aee09bf78e80ad82c6f8e16f95e8484426040516108dd93929190611ff7565b60405180910390a250505050565b606060035f8381526020019081526020015f20805480602002602001604051908101604052809291908181526020015f905b8282101561079c578382905f5260205f2001805461093a90611d31565b80601f016020809104026020016040519081016040528092919081815260200182805461096690611d31565b80156109b15780601f10610988576101008083540402835291602001916109b1565b820191905f5260205f20905b81548152906001019060200180831161099457829003601f168201915b50505050508152602001906001019061091d565b335f9081526005602052604090205460ff16610a3d5760405162461bcd60e51b815260206004820152603160248201527f4c616e6452656769737472793a2063616c6c6572206973206e6f7420616e206160448201527038383937bb32b2103932b3b4b9ba3930b960791b606482015260840161058a565b5f8481526001602052604090206003015460ff1615610a9e5760405162461bcd60e51b815260206004820181905260248201527f4c616e6452656769737472793a20616c72656164792072656769737465726564604482015260640161058a565b81610aeb5760405162461bcd60e51b815260206004820152601f60248201527f4c616e6452656769737472793a20495046532043494420726571756972656400604482015260640161058a565b6001600160a01b038116610b415760405162461bcd60e51b815260206004820152601b60248201527f4c616e6452656769737472793a20696e76616c6964206f776e65720000000000604482015260640161058a565b6040518060c00160405280826001600160a01b0316815260200184848080601f0160208091040260200160405190810160405280939291908181526020018383808284375f92018290525093855250504260208085019190915260016040808601829052606086018590528051808401825285815260809096019590955289845280825293909220845181546001600160a01b0319166001600160a01b03909116178155918401519192830191610bf9915082611e55565b50604082015160028201556060820151600382018054608085015115156101000261ff00199315159390931661ffff199091161791909117905560a08201516004820190610c479082611e55565b5050506001600160a01b0381165f90815260046020908152604082208054600181018255908352908220018590556008805491610c838361202e565b9190505550806001600160a01b0316847f8488f9b707e8be00a48832336de77e284d8c0874c325a1f1827db831406e2119858542604051610cc693929190611ff7565b60405180910390a350505050565b5f83815260016020526040902060030154839060ff16610d065760405162461bcd60e51b815260040161058a90611db4565b5f84815260016020526040902080546001600160a01b0316331480610d3457505f546001600160a01b031633145b610d805760405162461bcd60e51b815260206004820152601c60248201527f4c616e6452656769737472793a206e6f7420617574686f72697a656400000000604482015260640161058a565b82610dcd5760405162461bcd60e51b815260206004820152601a60248201527f4c616e6452656769737472793a20434944207265717569726564000000000000604482015260640161058a565b5f816001018054610ddd90611d31565b80601f0160208091040260200160405190810160405280929190818152602001828054610e0990611d31565b8015610e545780601f10610e2b57610100808354040283529160200191610e54565b820191905f5260205f20905b815481529060010190602001808311610e3757829003601f168201915b5050505f898152600360209081526040822080546001810182559083529120939450929092019150610e8890508282611e55565b5060018201610e98858783611f15565b50857fc42c4edbc41dce02b01dd098a1f7a4c685c638d7a2fdfbe449b32e1f89fbfae1828787604051610ecd93929190612046565b60405180910390a2505050505050565b6003602052815f5260405f208181548110610ef6575f80fd5b905f5260205f20015f91509150508054610f0f90611d31565b80601f0160208091040260200160405190810160405280929190818152602001828054610f3b90611d31565b8015610f865780601f10610f5d57610100808354040283529160200191610f86565b820191905f5260205f20905b815481529060010190602001808311610f6957829003601f168201915b505050505081565b610f96611883565b6006546001600160a01b0316331461100a5760405162461bcd60e51b815260206004820152603160248201527f4c616e6452656769737472793a2063616c6c6572206973206e6f7420746865206044820152701d1c985b9cd9995c8818dbdb9d1c9858dd607a1b606482015260840161058a565b5f84815260016020526040902060030154849060ff1661103c5760405162461bcd60e51b815260040161058a90611db4565b5f858152600160205260409020600301548590610100900460ff16156110a45760405162461bcd60e51b815260206004820152601c60248201527f4c616e6452656769737472793a206c616e642069732066726f7a656e00000000604482015260640161058a565b5f8681526001602052604090206001600160a01b0386166111075760405162461bcd60e51b815260206004820152601f60248201527f4c616e6452656769737472793a20696e76616c696420726563697069656e7400604482015260640161058a565b80546001600160a01b03908116908716036111645760405162461bcd60e51b815260206004820152601f60248201527f4c616e6452656769737472793a20616c726561647920746865206f776e657200604482015260640161058a565b5f815f015f9054906101000a90046001600160a01b0316905060025f8981526020019081526020015f206040518060a00160405280836001600160a01b03168152602001896001600160a01b0316815260200188815260200142815260200187815250908060018154018082558091505060019003905f5260205f2090600502015f909190919091505f820151815f015f6101000a8154816001600160a01b0302191690836001600160a01b031602179055506020820151816001015f6101000a8154816001600160a01b0302191690836001600160a01b03160217905550604082015181600201556060820151816003015560808201518160040155505086825f015f6101000a8154816001600160a01b0302191690836001600160a01b0316021790555060045f886001600160a01b03166001600160a01b031681526020019081526020015f2088908060018154018082558091505060019003905f5260205f20015f90919091909150556112db81896118b1565b866001600160a01b0316816001600160a01b0316897fcea2b11891b8ccadbf6bbe2d32df012302c4122a5b312403e121423ab155e947898960405161132a929190918252602082015260400190565b60405180910390a45050505061135f60017f9b779b17422d0df92223018b32b4d1fa46e071723d6817e2486d003becc55f0055565b50505050565b61136d611808565b6001600160a01b0381166113b45760405162461bcd60e51b815260206004820152600e60248201526d125b9d985b1a59081dd85b1b195d60921b604482015260640161058a565b6001600160a01b0381165f81815260056020526040808220805460ff19166001179055517f5c38ce8ff8864a9d2a5ff5aec72a88770e38d181dea59173fde1247cdaa1aea39190a250565b611407611808565b6001600160a01b0381165f81815260056020526040808220805460ff19169055517f81cb97a294b3ff5f91ef4048b3173c7f8f6943d9750add2071199061165e5f579190a250565b6001600160a01b0381165f908152600460209081526040918290208054835181840281018401909452808452606093928301828280156114ac57602002820191905f5260205f20905b815481526020019060010190808311611498575b50505050509050919050565b6114c0611808565b6001600160a01b0381166115085760405162461bcd60e51b815260206004820152600f60248201526e496e76616c6964206164647265737360881b604482015260640161058a565b6007546001600160a01b03161561154f5760405162461bcd60e51b815260206004820152600b60248201526a105b1c9958591e481cd95d60aa1b604482015260640161058a565b600780546001600160a01b0319166001600160a01b0392909216919091179055565b6004602052815f5260405f20818154811061158a575f80fd5b905f5260205f20015f91509150505481565b6115a4611808565b6001600160a01b0381166115ec5760405162461bcd60e51b815260206004820152600f60248201526e496e76616c6964206164647265737360881b604482015260640161058a565b6006546001600160a01b0316156116335760405162461bcd60e51b815260206004820152600b60248201526a105b1c9958591e481cd95d60aa1b604482015260640161058a565b600680546001600160a01b0319166001600160a01b0392909216919091179055565b61165d611808565b6001600160a01b03811661168657604051631e4fbdf760e01b81525f600482015260240161058a565b61168f81611834565b50565b5f81815260016020819052604082208054600282015460038301549383018054606095879586958695899592946001600160a01b0390921693909160ff8083169261010090041690600487019085906116ea90611d31565b80601f016020809104026020016040519081016040528092919081815260200182805461171690611d31565b80156117615780601f1061173857610100808354040283529160200191611761565b820191905f5260205f20905b81548152906001019060200180831161174457829003601f168201915b5050505050945080805461177490611d31565b80601f01602080910402602001604051908101604052809291908181526020018280546117a090611d31565b80156117eb5780601f106117c2576101008083540402835291602001916117eb565b820191905f5260205f20905b8154815290600101906020018083116117ce57829003601f168201915b505050505090509650965096509650965096505091939550919395565b5f546001600160a01b031633146107b85760405163118cdaa760e01b815233600482015260240161058a565b5f80546001600160a01b038381166001600160a01b0319831681178455604051919092169283917f8be0079c531659141344cd1fd0a4f28419497f9722a3daafe3b4186f6b6457e09190a35050565b61188b61196b565b60027f9b779b17422d0df92223018b32b4d1fa46e071723d6817e2486d003becc55f0055565b6001600160a01b0382165f908152600460205260408120905b815481101561135f57828282815481106118e6576118e6612075565b905f5260205f20015403611963578154829061190490600190612089565b8154811061191457611914612075565b905f5260205f20015482828154811061192f5761192f612075565b905f5260205f2001819055508180548061194b5761194b6120a2565b600190038181905f5260205f20015f9055905561135f565b6001016118ca565b7f9b779b17422d0df92223018b32b4d1fa46e071723d6817e2486d003becc55f00546002036107b857604051633ee5aeb560e01b815260040160405180910390fd5b5f602082840312156119bd575f80fd5b5035919050565b5f81518084525f5b818110156119e8576020818501810151868301820152016119cc565b505f602082860101526020601f19601f83011685010191505092915050565b6001600160a01b038716815260c0602082018190525f90611a2a908301886119c4565b8660408401528515156060840152841515608084015282810360a0840152611a5281856119c4565b9998505050505050505050565b5f8060408385031215611a70575f80fd5b50508035926020909101359150565b602080825282518282018190525f919060409081850190868401855b82811015611aeb57815180516001600160a01b0390811686528782015116878601528581015186860152606080820151908601526080908101519085015260a09093019290850190600101611a9b565b5091979650505050505050565b5f8083601f840112611b08575f80fd5b50813567ffffffffffffffff811115611b1f575f80fd5b602083019150836020828501011115611b36575f80fd5b9250929050565b5f805f60408486031215611b4f575f80fd5b83359250602084013567ffffffffffffffff811115611b6c575f80fd5b611b7886828701611af8565b9497909650939450505050565b5f60208083016020845280855180835260408601915060408160051b8701019250602087015f5b82811015611bda57603f19888603018452611bc88583516119c4565b94509285019290850190600101611bac565b5092979650505050505050565b80356001600160a01b0381168114611bfd575f80fd5b919050565b5f805f8060608587031215611c15575f80fd5b84359350602085013567ffffffffffffffff811115611c32575f80fd5b611c3e87828801611af8565b9094509250611c51905060408601611be7565b905092959194509250565b602081525f611c6e60208301846119c4565b9392505050565b5f805f8060808587031215611c88575f80fd5b84359350611c9860208601611be7565b93969395505050506040820135916060013590565b5f60208284031215611cbd575f80fd5b611c6e82611be7565b602080825282518282018190525f9190848201906040850190845b81811015611cfd57835183529284019291840191600101611ce1565b50909695505050505050565b5f8060408385031215611d1a575f80fd5b611d2383611be7565b946020939093013593505050565b600181811c90821680611d4557607f821691505b602082108103611d6357634e487b7160e01b5f52602260045260245ffd5b50919050565b6020808252602b908201527f4c616e6452656769737472793a2063616c6c6572206973206e6f74204f66666960408201526a6365724d756c746953696760a81b606082015260800190565b60208082526021908201527f4c616e6452656769737472793a206c616e64206e6f74207265676973746572656040820152601960fa1b606082015260800190565b634e487b7160e01b5f52604160045260245ffd5b601f821115611e5057805f5260205f20601f840160051c81016020851015611e2e5750805b601f840160051c820191505b81811015611e4d575f8155600101611e3a565b50505b505050565b815167ffffffffffffffff811115611e6f57611e6f611df5565b611e8381611e7d8454611d31565b84611e09565b602080601f831160018114611eb6575f8415611e9f5750858301515b5f19600386901b1c1916600185901b178555611f0d565b5f85815260208120601f198616915b82811015611ee457888601518255948401946001909101908401611ec5565b5085821015611f0157878501515f19600388901b60f8161c191681555b505060018460011b0185555b505050505050565b67ffffffffffffffff831115611f2d57611f2d611df5565b611f4183611f3b8354611d31565b83611e09565b5f601f841160018114611f72575f8515611f5b5750838201355b5f19600387901b1c1916600186901b178355611e4d565b5f83815260208120601f198716915b82811015611fa15786850135825560209485019460019092019101611f81565b5086821015611fbd575f1960f88860031b161c19848701351681555b505060018560011b0183555050505050565b81835281816020850137505f828201602090810191909152601f909101601f19169091010190565b604081525f61200a604083018587611fcf565b9050826020830152949350505050565b634e487b7160e01b5f52601160045260245ffd5b5f6001820161203f5761203f61201a565b5060010190565b604081525f61205860408301866119c4565b828103602084015261206b818587611fcf565b9695505050505050565b634e487b7160e01b5f52603260045260245ffd5b8181038181111561209c5761209c61201a565b92915050565b634e487b7160e01b5f52603160045260245ffdfea26469706673582212202a74eb5cba23631e6af69e07b381310d8089e0277f7d0d373794960ae602d0fb64736f6c63430008180033",
  "linkReferences": {},
  "deployedLinkReferences": {},
  "immutableReferences": {},
  "inputSourceName": "project/contracts/LandRegistry.sol",
  "buildInfoId": "solc-0_8_24-cdae585781be85be96713d8dd533e9e769ff8300"
}