{
  "_format": "hh-sol-artifact-1",
  "contractName": "MultiSigTransfer",
  "sourceName": "contracts/MultiSigTransfer.sol",
  "abi": [
    {
      "inputs": [
        {
          "internalType": "address",
          "name": "_registry",
          "type": "address"
        }
      ],
      "stateMutability": "nonpayable",
      "type": "constructor"
    },
    {
      "inputs": [],
      "name": "ReentrancyGuardReentrantCall",
      "type": "error"
    },
    {
      "anonymous": false,
      "inputs": [
        {
          "indexed": true,
          "internalType": "bytes32",
          "name": "landId",
          "type": "bytes32"
        },
        {
          "indexed": false,
          "internalType": "address[]",
          "name": "coOwners",
          "type": "address[]"
        }
      ],
      "name": "CoOwnersSet",
      "type": "event"
    },
    {
      "anonymous": false,
      "inputs": [
        {
          "indexed": true,
          "internalType": "uint256",
          "name": "proposalId",
          "type": "uint256"
        },
        {
          "indexed": true,
          "internalType": "address",
          "name": "approver",
          "type": "address"
        },
        {
          "indexed": false,
          "internalType": "uint256",
          "name": "currentApprovals",
          "type": "uint256"
        },
        {
          "indexed": false,
          "internalType": "uint256",
          "name": "required",
          "type": "uint256"
        }
      ],
      "name": "ProposalApproved",
      "type": "event"
    },
    {
      "anonymous": false,
      "inputs": [
        {
          "indexed": true,
          "internalType": "uint256",
          "name": "proposalId",
          "type": "uint256"
        }
      ],
      "name": "ProposalCancelled",
      "type": "event"
    },
    {
      "anonymous": false,
      "inputs": [
        {
          "indexed": true,
          "internalType": "uint256",
          "name": "proposalId",
          "type": "uint256"
        },
        {
          "indexed": true,
          "internalType": "bytes32",
          "name": "landId",
          "type": "bytes32"
        },
        {
          "indexed": false,
          "internalType": "address",
          "name": "proposer",
          "type": "address"
        },
        {
          "indexed": false,
          "internalType": "address",
          "name": "newOwner",
          "type": "address"
        },
        {
          "indexed": false,
          "internalType": "uint256",
          "name": "required",
          "type": "uint256"
        }
      ],
      "name": "ProposalCreated",
      "type": "event"
    },
    {
      "anonymous": false,
      "inputs": [
        {
          "indexed": true,
          "internalType": "uint256",
          "name": "proposalId",
          "type": "uint256"
        },
        {
          "indexed": true,
          "internalType": "bytes32",
          "name": "landId",
          "type": "bytes32"
        },
        {
          "indexed": false,
          "internalType": "address",
          "name": "newOwner",
          "type": "address"
        }
      ],
      "name": "ProposalExecuted",
      "type": "event"
    },
    {
      "inputs": [
        {
          "internalType": "uint256",
          "name": "proposalId",
          "type": "uint256"
        }
      ],
      "name": "approveTransfer",
      "outputs": [],
      "stateMutability": "nonpayable",
      "type": "function"
    },
    {
      "inputs": [
        {
          "internalType": "uint256",
          "name": "proposalId",
          "type": "uint256"
        }
      ],
      "name": "cancelProposal",
      "outputs": [],
      "stateMutability": "nonpayable",
      "type": "function"
    },
    {
      "inputs": [
        {
          "internalType": "uint256",
          "name": "proposalId",
          "type": "uint256"
        }
      ],
      "name": "executeTransfer",
      "outputs": [],
      "stateMutability": "nonpayable",
      "type": "function"
    },
    {
      "inputs": [
        {
          "internalType": "uint256",
          "name": "proposalId",
          "type": "uint256"
        }
      ],
      "name": "getApprovers",
      "outputs": [
        {
          "internalType": "address[]",
          "name": "",
          "type": "address[]"
        }
      ],
      "stateMutability": "view",
      "type": "function"
    },
    {
      "inputs": [
        {
          "internalType": "bytes32",
          "name": "landId",
          "type": "bytes32"
        }
      ],
      "name": "getCoOwners",
      "outputs": [
        {
          "internalType": "address[]",
          "name": "",
          "type": "address[]"
        }
      ],
      "stateMutability": "view",
      "type": "function"
    },
    {
      "inputs": [
        {
          "internalType": "uint256",
          "name": "proposalId",
          "type": "uint256"
        }
      ],
      "name": "getProposal",
      "outputs": [
        {
          "internalType": "bytes32",
          "name": "landId",
          "type": "bytes32"
        },
        {
          "internalType": "address",
          "name": "proposer",
          "type": "address"
        },
        {
          "internalType": "address",
          "name": "newOwner",
          "type": "address"
        },
        {
          "internalType": "uint256",
          "name": "price",
          "type": "uint256"
        },
        {
          "internalType": "uint256",
          "name": "required",
          "type": "uint256"
        },
        {
          "internalType": "uint256",
          "name": "approvals",
          "type": "uint256"
        },
        {
          "internalType": "bool",
          "name": "executed",
          "type": "bool"
        },
        {
          "internalType": "bool",
          "name": "cancelled",
          "type": "bool"
        }
      ],
      "stateMutability": "view",
      "type": "function"
    },
    {
      "inputs": [
        {
          "internalType": "uint256",
          "name": "",
          "type": "uint256"
        },
        {
          "internalType": "address",
          "name": "",
          "type": "address"
        }
      ],
      "name": "hasApproved",
      "outputs": [
        {
          "internalType": "bool",
          "name": "",
          "type": "bool"
        }
      ],
      "stateMutability": "view",
      "type": "function"
    },
    {
      "inputs": [
        {
          "internalType": "bytes32",
          "name": "",
          "type": "bytes32"
        },
        {
          "internalType": "address",
          "name": "",
          "type": "address"
        }
      ],
      "name": "isCoOwner",
      "outputs": [
        {
          "internalType": "bool",
          "name": "",
          "type": "bool"
        }
      ],
      "stateMutability": "view",
      "type": "function"
    },
    {
      "inputs": [
        {
          "internalType": "bytes32",
          "name": "",
          "type": "bytes32"
        },
        {
          "internalType": "uint256",
          "name": "",
          "type": "uint256"
        }
      ],
      "name": "landCoOwners",
      "outputs": [
        {
          "internalType": "address",
          "name": "",
          "type": "address"
        }
      ],
      "stateMutability": "view",
      "type": "function"
    },
    {
      "inputs": [
        {
          "internalType": "uint256",
          "name": "",
          "type": "uint256"
        },
        {
          "internalType": "uint256",
          "name": "",
          "type": "uint256"
        }
      ],
      "name": "proposalApprovers",
      "outputs": [
        {
          "internalType": "address",
          "name": "",
          "type": "address"
        }
      ],
      "stateMutability": "view",
      "type": "function"
    },
    {
      "inputs": [],
      "name": "proposalCount",
      "outputs": [
        {
          "internalType": "uint256",
          "name": "",
          "type": "uint256"
        }
      ],
      "stateMutability": "view",
      "type": "function"
    },
    {
      "inputs": [
        {
          "internalType": "uint256",
          "name": "",
          "type": "uint256"
        }
      ],
      "name": "proposals",
      "outputs": [
        {
          "internalType": "bytes32",
          "name": "landId",
          "type": "bytes32"
        },
        {
          "internalType": "address",
          "name": "proposer",
          "type": "address"
        },
        {
          "internalType": "address",
          "name": "newOwner",
          "type": "address"
        },
        {
          "internalType": "uint256",
          "name": "price",
          "type": "uint256"
        },
        {
          "internalType": "uint256",
          "name": "requiredApprovals",
          "type": "uint256"
        },
        {
          "internalType": "uint256",
          "name": "approvalCount",
          "type": "uint256"
        },
        {
          "internalType": "bool",
          "name": "executed",
          "type": "bool"
        },
        {
          "internalType": "bool",
          "name": "cancelled",
          "type": "bool"
        },
        {
          "internalType": "uint256",
          "name": "createdAt",
          "type": "uint256"
        },
        {
          "internalType": "bytes32",
          "name": "offChainRef",
          "type": "bytes32"
        }
      ],
      "stateMutability": "view",
      "type": "function"
    },
    {
      "inputs": [
        {
          "internalType": "bytes32",
          "name": "landId",
          "type": "bytes32"
        },
        {
          "internalType": "address",
          "name": "newOwner",
          "type": "address"
        },
        {
          "internalType": "uint256",
          "name": "price",
          "type": "uint256"
        },
        {
          "internalType": "bytes32",
          "name": "offChainRef",
          "type": "bytes32"
        }
      ],
      "name": "proposeTransfer",
      "outputs": [
        {
          "internalType": "uint256",
          "name": "",
          "type": "uint256"
        }
      ],
      "stateMutability": "payable",
      "type": "function"
    },
    {
      "inputs": [],
      "name": "registry",
      "outputs": [
        {
          "internalType": "contract ILandRegistry",
          "name": "",
          "type": "address"
        }
      ],
      "stateMutability": "view",
      "type": "function"
    },
    {
      "inputs": [
        {
          "internalType": "bytes32",
          "name": "landId",
          "type": "bytes32"
        },
        {
          "internalType": "address[]",
          "name": "coOwners",
          "type": "address[]"
        }
      ],
      "name": "setCoOwners",
      "outputs": [],
      "stateMutability": "nonpayable",
      "type": "function"
    }
  ],
  "bytecode": "0x608060405234801561001057600080fd5b506040516119d83803806119d883398101604081905261002f916100c5565b60017f9b779b17422d0df92223018b32b4d1fa46e071723d6817e2486d003becc55f00556001600160a01b0381166100a05760405162461bcd60e51b815260206004820152601060248201526f496e76616c696420726567697374727960801b604482015260640160405180910390fd5b600080546001600160a01b0319166001600160a01b03929092169190911790556100f5565b6000602082840312156100d757600080fd5b81516001600160a01b03811681146100ee57600080fd5b9392505050565b6118d4806101046000396000f3fe6080604052600436106100e85760003560e01c8063c2106dbc1161008a578063d6ef047211610059578063d6ef047214610414578063da35c66414610434578063e0a8f6f51461044a578063f05d57521461046a57600080fd5b8063c2106dbc146102ea578063c65df7941461030b578063c7f758a814610338578063cacca4a0146103f457600080fd5b80635d07c0e2116100c65780635d07c0e2146102375780637382b37b1461026f5780637b1039991461028f57806399b7d974146102af57600080fd5b8063013cf08b146100ed5780632358d5a8146101ca57806355f34d9a14610215575b600080fd5b3480156100f957600080fd5b5061016b6101083660046114de565b600260208190526000918252604090912080546001820154928201546003830154600484015460058501546006860154600787015460089097015495976001600160a01b039081169795169593949293919260ff8083169361010090930416918a565b604080519a8b526001600160a01b03998a1660208c015297909816968901969096526060880194909452608087019290925260a0860152151560c0850152151560e0840152610100830152610120820152610140015b60405180910390f35b3480156101d657600080fd5b506102056101e536600461150c565b600360209081526000928352604080842090915290825290205460ff1681565b60405190151581526020016101c1565b34801561022157600080fd5b5061023561023036600461153c565b61048a565b005b34801561024357600080fd5b506102576102523660046115bb565b6107b3565b6040516001600160a01b0390911681526020016101c1565b34801561027b57600080fd5b5061025761028a3660046115bb565b6107eb565b34801561029b57600080fd5b50600054610257906001600160a01b031681565b3480156102bb57600080fd5b506102056102ca36600461150c565b600660209081526000928352604080842090915290825290205460ff1681565b6102fd6102f83660046115dd565b610807565b6040519081526020016101c1565b34801561031757600080fd5b5061032b6103263660046114de565b610c10565b6040516101c1919061161a565b34801561034457600080fd5b506103a96103533660046114de565b6000908152600260208190526040909120805460018201549282015460038301546004840154600585015460069095015493966001600160a01b0396871696909316949193909260ff8083169261010090041690565b604080519889526001600160a01b0397881660208a015295909616948701949094526060860192909252608085015260a0840152151560c0830152151560e0820152610100016101c1565b34801561040057600080fd5b5061023561040f3660046114de565b610c7c565b34801561042057600080fd5b5061032b61042f3660046114de565b610e2c565b34801561044057600080fd5b506102fd60015481565b34801561045657600080fd5b506102356104653660046114de565b610e96565b34801561047657600080fd5b506102356104853660046114de565b61110b565b60008054604051637cc3e6cf60e11b81526004810186905282916001600160a01b03169063f987cd9e90602401600060405180830381865afa1580156104d4573d6000803e3d6000fd5b505050506040513d6000823e601f3d908101601f191682016040526104fc9190810190611692565b9350505091508061054a5760405162461bcd60e51b815260206004820152601360248201527213185b99081b9bdd081c9959da5cdd195c9959606a1b60448201526064015b60405180910390fd5b6001600160a01b03821633146105945760405162461bcd60e51b815260206004820152600f60248201526e27b7363c903630b7321037bbb732b960891b6044820152606401610541565b6000858152600560205260408120905b815481101561060d576000878152600660205260408120835482908590859081106105d1576105d161178a565b6000918252602080832091909101546001600160a01b031683528201929092526040019020805460ff19169115159190911790556001016105a4565b506000868152600560205260408120610625916114ac565b60005b848110156107705760008686838181106106445761064461178a565b905060200201602081019061065991906117a0565b6001600160a01b0316036106a25760405162461bcd60e51b815260206004820152601060248201526f24b73b30b634b21031b796b7bbb732b960811b6044820152606401610541565b60008781526005602052604090208686838181106106c2576106c261178a565b90506020020160208101906106d791906117a0565b8154600180820184556000938452602080852090920180546001600160a01b0319166001600160a01b0394909416939093179092558983526006905260408220909188888581811061072b5761072b61178a565b905060200201602081019061074091906117a0565b6001600160a01b031681526020810191909152604001600020805460ff1916911515919091179055600101610628565b50857ff7a406d1952f388b49229b6e4b8016adaeac809967eff97b4b2933930336d20486866040516107a39291906117c4565b60405180910390a2505050505050565b600460205281600052604060002081815481106107cf57600080fd5b6000918252602090912001546001600160a01b03169150829050565b600560205281600052604060002081815481106107cf57600080fd5b60008234146108585760405162461bcd60e51b815260206004820152601c60248201527f4d7573742073656e6420657861637420707269636520696e20504f4c000000006044820152606401610541565b60008054604051637cc3e6cf60e11b81526004810188905282916001600160a01b03169063f987cd9e90602401600060405180830381865afa1580156108a2573d6000803e3d6000fd5b505050506040513d6000823e601f3d908101601f191682016040526108ca9190810190611692565b935050509150806109135760405162461bcd60e51b815260206004820152601360248201527213185b99081b9bdd081c9959da5cdd195c9959606a1b6044820152606401610541565b6001600160a01b03861661095d5760405162461bcd60e51b815260206004820152601160248201527024b73b30b634b2103732bb9037bbb732b960791b6044820152606401610541565b60008781526005602052604081205490610978826001611828565b60018054919250600091908261098d8361183b565b9190505590506040518061014001604052808b8152602001336001600160a01b031681526020018a6001600160a01b031681526020018981526020018381526020016000815260200160001515815260200160001515815260200142815260200188815250600260008381526020019081526020016000206000820151816000015560208201518160010160006101000a8154816001600160a01b0302191690836001600160a01b0316021790555060408201518160020160006101000a8154816001600160a01b0302191690836001600160a01b03160217905550606082015181600301556080820151816004015560a0820151816005015560c08201518160060160006101000a81548160ff02191690831515021790555060e08201518160060160016101000a81548160ff0219169083151502179055506101008201518160070155610120820151816008015590505060046000828152602001908152602001600020859080600181540180825580915050600190039060005260206000200160009091909190916101000a8154816001600160a01b0302191690836001600160a01b0316021790555060005b83811015610bb55760008281526004602090815260408083208e84526005909252909120805483908110610b7357610b7361178a565b6000918252602080832090910154835460018181018655948452919092200180546001600160a01b0319166001600160a01b0390921691909117905501610b3d565b50604080513381526001600160a01b038b1660208201529081018390528a9082907fb5816062f2f0acd60989bf199e06e1cebf19b2ea504e0910da8466f8b150bda99060600160405180910390a39998505050505050505050565b600081815260046020908152604091829020805483518184028101840190945280845260609392830182828015610c7057602002820191906000526020600020905b81546001600160a01b03168152600190910190602001808311610c52575b50505050509050919050565b6000818152600260205260409020600681015460ff1615610caf5760405162461bcd60e51b815260040161054190611854565b6006810154610100900460ff1615610cf55760405162461bcd60e51b815260206004820152600960248201526810d85b98d95b1b195960ba1b6044820152606401610541565b610cff82336113ef565b610d3d5760405162461bcd60e51b815260206004820152600f60248201526e2737ba1030b71030b8383937bb32b960891b6044820152606401610541565b600082815260036020908152604080832033845290915290205460ff1615610d9a5760405162461bcd60e51b815260206004820152601060248201526f105b1c9958591e48185c1c1c9bdd995960821b6044820152606401610541565b60008281526003602090815260408083203384529091528120805460ff1916600117905560058201805491610dce8361183b565b9190505550336001600160a01b0316827f5064fb9bf50f615c47cc24c49119ba31d2c1a83ad6aed3b226cd42005524b7f483600501548460040154604051610e20929190918252602082015260400190565b60405180910390a35050565b600081815260056020908152604091829020805483518184028101840190945280845260609392830182828015610c70576020028201919060005260206000209081546001600160a01b03168152600190910190602001808311610c525750505050509050919050565b610e9e61145e565b6000818152600260205260409020600681015460ff1615610ed15760405162461bcd60e51b815260040161054190611854565b6006810154610100900460ff1615610f1f5760405162461bcd60e51b8152602060048201526011602482015270105b1c9958591e4818d85b98d95b1b1959607a1b6044820152606401610541565b600080548254604051637cc3e6cf60e11b81526001600160a01b039092169163f987cd9e91610f549160040190815260200190565b600060405180830381865afa158015610f71573d6000803e3d6000fd5b505050506040513d6000823e601f3d908101601f19168201604052610f999190810190611692565b50505060018301549091506001600160a01b0316331480610fc25750336001600160a01b038216145b61100e5760405162461bcd60e51b815260206004820152601860248201527f4e6f7420617574686f72697a656420746f2063616e63656c00000000000000006044820152606401610541565b60068201805461ff0019166101001790556003820154156110c457600182015460038301546040516000926001600160a01b031691908381818185875af1925050503d806000811461107c576040519150601f19603f3d011682016040523d82523d6000602084013e611081565b606091505b50509050806110c25760405162461bcd60e51b815260206004820152600d60248201526c1499599d5b990819985a5b1959609a1b6044820152606401610541565b505b60405183907f416e669c63d9a3a5e36ee7cc7e2104b8db28ccd286aa18966e98fa230c73b08c90600090a25050611108600160008051602061187f83398151915255565b50565b61111361145e565b6000818152600260205260409020600681015460ff16156111465760405162461bcd60e51b815260040161054190611854565b6006810154610100900460ff161561118c5760405162461bcd60e51b815260206004820152600960248201526810d85b98d95b1b195960ba1b6044820152606401610541565b8060040154816005015410156111db5760405162461bcd60e51b81526020600482015260146024820152734e6f7420656e6f75676820617070726f76616c7360601b6044820152606401610541565b60068101805460ff19166001179055600080548254604051637cc3e6cf60e11b81526001600160a01b039092169163f987cd9e9161121f9160040190815260200190565b600060405180830381865afa15801561123c573d6000803e3d6000fd5b505050506040513d6000823e601f3d908101601f191682016040526112649190810190611692565b5050600054845460028601546003870154600888015460405163579ad2f560e11b815260048101949094526001600160a01b0392831660248501526044840191909152606483015293945092169163af35a5ea9150608401600060405180830381600087803b1580156112d657600080fd5b505af11580156112ea573d6000803e3d6000fd5b505050506003820154156113905760038201546040516000916001600160a01b038416918381818185875af1925050503d8060008114611346576040519150601f19603f3d011682016040523d82523d6000602084013e61134b565b606091505b505090508061138e5760405162461bcd60e51b815260206004820152600f60248201526e151c985b9cd9995c8819985a5b1959608a1b6044820152606401610541565b505b815460028301546040516001600160a01b03909116815284907f57f8c9c3b1302f8e3049dbc9cc738dc893dc3a49bc9792f8d128b36776dd842c9060200160405180910390a35050611108600160008051602061187f83398151915255565b6000828152600460205260408120815b815481101561145157836001600160a01b03168282815481106114245761142461178a565b6000918252602090912001546001600160a01b03160361144957600192505050611458565b6001016113ff565b5060009150505b92915050565b61146661147a565b600260008051602061187f83398151915255565b60008051602061187f833981519152546002036114aa57604051633ee5aeb560e01b815260040160405180910390fd5b565b508054600082559060005260206000209081019061110891905b808211156114da57600081556001016114c6565b5090565b6000602082840312156114f057600080fd5b5035919050565b6001600160a01b038116811461110857600080fd5b6000806040838503121561151f57600080fd5b823591506020830135611531816114f7565b809150509250929050565b60008060006040848603121561155157600080fd5b83359250602084013567ffffffffffffffff8082111561157057600080fd5b818601915086601f83011261158457600080fd5b81358181111561159357600080fd5b8760208260051b85010111156115a857600080fd5b6020830194508093505050509250925092565b600080604083850312156115ce57600080fd5b50508035926020909101359150565b600080600080608085870312156115f357600080fd5b843593506020850135611605816114f7565b93969395505050506040820135916060013590565b6020808252825182820181905260009190848201906040850190845b8181101561165b5783516001600160a01b031683529284019291840191600101611636565b50909695505050505050565b634e487b7160e01b600052604160045260246000fd5b8051801515811461168d57600080fd5b919050565b600080600080608085870312156116a857600080fd5b84516116b3816114f7565b8094505060208086015167ffffffffffffffff808211156116d357600080fd5b818801915088601f8301126116e757600080fd5b8151818111156116f9576116f9611667565b604051601f8201601f19908116603f0116810190838211818310171561172157611721611667565b816040528281528b8684870101111561173957600080fd5b600093505b8284101561175b578484018601518185018701529285019261173e565b60008684830101528098505050505050506040850151915061177f6060860161167d565b905092959194509250565b634e487b7160e01b600052603260045260246000fd5b6000602082840312156117b257600080fd5b81356117bd816114f7565b9392505050565b60208082528181018390526000908460408401835b868110156118075782356117ec816114f7565b6001600160a01b0316825291830191908301906001016117d9565b509695505050505050565b634e487b7160e01b600052601160045260246000fd5b8082018082111561145857611458611812565b60006001820161184d5761184d611812565b5060010190565b60208082526010908201526f105b1c9958591e48195e1958dd5d195960821b60408201526060019056fe9b779b17422d0df92223018b32b4d1fa46e071723d6817e2486d003becc55f00a26469706673582212204eefb582394c3b24f6fafe5956d99663f7838d29b2ab56634477bd5f5ad36da864736f6c63430008180033",
  "linkReferences": {},
  "deployedLinkReferences": {}
}