{
  "_format": "hh-sol-artifact-1",
  "contractName": "LandRegistry",
  "sourceName": "contracts/LandRegistry.sol",
  "abi": [
    {
      "inputs": [],
      "stateMutability": "nonpayable",
      "type": "constructor"
    },
    {
      "inputs": [
        {
          "internalType": "address",
          "name": "owner",
          "type": "address"
        }
      ],
      "name": "OwnableInvalidOwner",
      "type": "error"
    },
    {
      "inputs": [
        {
          "internalType": "address",
          "name": "account",
          "type": "address"
        }
      ],
      "name": "OwnableUnauthorizedAccount",
      "type": "error"
    },
    {
      "inputs": [],
      "name": "ReentrancyGuardReentrantCall",
      "type": "error"
    },
    {
      "anonymous": false,
      "inputs": [
        {
          "indexed": true,
          "internalType": "bytes32",
          "name": "landId",
          "type": "bytes32"
        },
        {
          "indexed": true,
          "internalType": "address",
          "name": "owner",
          "type": "address"
        },
        {
          "indexed": false,
          "internalType": "string",
          "name": "ipfsCID",
          "type": "string"
        },
        {
          "indexed": false,
          "internalType": "uint256",
          "name": "timestamp",
          "type": "uint256"
        }
      ],
      "name": "LandRegistered",
      "type": "event"
    },
    {
      "anonymous": false,
      "inputs": [
        {
          "indexed": true,
          "internalType": "bytes32",
          "name": "landId",
          "type": "bytes32"
        },
        {
          "indexed": true,
          "internalType": "address",
          "name": "from",
          "type": "address"
        },
        {
          "indexed": true,
          "internalType": "address",
          "name": "to",
          "type": "address"
        },
        {
          "indexed": false,
          "internalType": "uint256",
          "name": "price",
          "type": "uint256"
        },
        {
          "indexed": false,
          "internalType": "bytes32",
          "name": "txRef",
          "type": "bytes32"
        }
      ],
      "name": "LandTransferred",
      "type": "event"
    },
    {
      "anonymous": false,
      "inputs": [
        {
          "indexed": true,
          "internalType": "bytes32",
          "name": "landId",
          "type": "bytes32"
        },
        {
          "indexed": false,
          "internalType": "string",
          "name": "newIpfsCID",
          "type": "string"
        }
      ],
      "name": "MetadataUpdated",
      "type": "event"
    },
    {
      "anonymous": false,
      "inputs": [
        {
          "indexed": true,
          "internalType": "address",
          "name": "previousOwner",
          "type": "address"
        },
        {
          "indexed": true,
          "internalType": "address",
          "name": "newOwner",
          "type": "address"
        }
      ],
      "name": "OwnershipTransferred",
      "type": "event"
    },
    {
      "inputs": [
        {
          "internalType": "bytes32",
          "name": "landId",
          "type": "bytes32"
        }
      ],
      "name": "getLand",
      "outputs": [
        {
          "internalType": "address",
          "name": "_owner",
          "type": "address"
        },
        {
          "internalType": "string",
          "name": "_ipfsCID",
          "type": "string"
        },
        {
          "internalType": "uint256",
          "name": "_registeredAt",
          "type": "uint256"
        },
        {
          "internalType": "bool",
          "name": "_exists",
          "type": "bool"
        }
      ],
      "stateMutability": "view",
      "type": "function"
    },
    {
      "inputs": [
        {
          "internalType": "address",
          "name": "_owner",
          "type": "address"
        }
      ],
      "name": "getOwnerLandCount",
      "outputs": [
        {
          "internalType": "uint256",
          "name": "",
          "type": "uint256"
        }
      ],
      "stateMutability": "view",
      "type": "function"
    },
    {
      "inputs": [
        {
          "internalType": "bytes32",
          "name": "landId",
          "type": "bytes32"
        },
        {
          "internalType": "uint256",
          "name": "index",
          "type": "uint256"
        }
      ],
      "name": "getTransferAt",
      "outputs": [
        {
          "internalType": "address",
          "name": "from",
          "type": "address"
        },
        {
          "internalType": "address",
          "name": "to",
          "type": "address"
        },
        {
          "internalType": "uint256",
          "name": "price",
          "type": "uint256"
        },
        {
          "internalType": "uint256",
          "name": "timestamp",
          "type": "uint256"
        },
        {
          "internalType": "bytes32",
          "name": "txRef",
          "type": "bytes32"
        }
      ],
      "stateMutability": "view",
      "type": "function"
    },
    {
      "inputs": [
        {
          "internalType": "bytes32",
          "name": "landId",
          "type": "bytes32"
        }
      ],
      "name": "getTransferCount",
      "outputs": [
        {
          "internalType": "uint256",
          "name": "",
          "type": "uint256"
        }
      ],
      "stateMutability": "view",
      "type": "function"
    },
    {
      "inputs": [
        {
          "internalType": "bytes32",
          "name": "",
          "type": "bytes32"
        }
      ],
      "name": "lands",
      "outputs": [
        {
          "internalType": "address",
          "name": "owner",
          "type": "address"
        },
        {
          "internalType": "string",
          "name": "ipfsMetadataCID",
          "type": "string"
        },
        {
          "internalType": "uint256",
          "name": "registeredAt",
          "type": "uint256"
        },
        {
          "internalType": "bool",
          "name": "exists",
          "type": "bool"
        }
      ],
      "stateMutability": "view",
      "type": "function"
    },
    {
      "inputs": [],
      "name": "owner",
      "outputs": [
        {
          "internalType": "address",
          "name": "",
          "type": "address"
        }
      ],
      "stateMutability": "view",
      "type": "function"
    },
    {
      "inputs": [
        {
          "internalType": "address",
          "name": "",
          "type": "address"
        },
        {
          "internalType": "uint256",
          "name": "",
          "type": "uint256"
        }
      ],
      "name": "ownerLands",
      "outputs": [
        {
          "internalType": "bytes32",
          "name": "",
          "type": "bytes32"
        }
      ],
      "stateMutability": "view",
      "type": "function"
    },
    {
      "inputs": [
        {
          "internalType": "bytes32",
          "name": "landId",
          "type": "bytes32"
        },
        {
          "internalType": "string",
          "name": "ipfsCID",
          "type": "string"
        }
      ],
      "name": "registerLand",
      "outputs": [],
      "stateMutability": "nonpayable",
      "type": "function"
    },
    {
      "inputs": [],
      "name": "renounceOwnership",
      "outputs": [],
      "stateMutability": "nonpayable",
      "type": "function"
    },
    {
      "inputs": [],
      "name": "totalLands",
      "outputs": [
        {
          "internalType": "uint256",
          "name": "",
          "type": "uint256"
        }
      ],
      "stateMutability": "view",
      "type": "function"
    },
    {
      "inputs": [
        {
          "internalType": "bytes32",
          "name": "",
          "type": "bytes32"
        },
        {
          "internalType": "uint256",
          "name": "",
          "type": "uint256"
        }
      ],
      "name": "transferHistory",
      "outputs": [
        {
          "internalType": "address",
          "name": "from",
          "type": "address"
        },
        {
          "internalType": "address",
          "name": "to",
          "type": "address"
        },
        {
          "internalType": "uint256",
          "name": "price",
          "type": "uint256"
        },
        {
          "internalType": "uint256",
          "name": "timestamp",
          "type": "uint256"
        },
        {
          "internalType": "bytes32",
          "name": "txRef",
          "type": "bytes32"
        }
      ],
      "stateMutability": "view",
      "type": "function"
    },
    {
      "inputs": [
        {
          "internalType": "bytes32",
          "name": "landId",
          "type": "bytes32"
        },
        {
          "internalType": "address",
          "name": "to",
          "type": "address"
        },
        {
          "internalType": "uint256",
          "name": "price",
          "type": "uint256"
        },
        {
          "internalType": "bytes32",
          "name": "txRef",
          "type": "bytes32"
        }
      ],
      "name": "transferLand",
      "outputs": [],
      "stateMutability": "nonpayable",
      "type": "function"
    },
    {
      "inputs": [
        {
          "internalType": "address",
          "name": "newOwner",
          "type": "address"
        }
      ],
      "name": "transferOwnership",
      "outputs": [],
      "stateMutability": "nonpayable",
      "type": "function"
    },
    {
      "inputs": [
        {
          "internalType": "bytes32",
          "name": "landId",
          "type": "bytes32"
        },
        {
          "internalType": "string",
          "name": "newIpfsCID",
          "type": "string"
        }
      ],
      "name": "updateMetadata",
      "outputs": [],
      "stateMutability": "nonpayable",
      "type": "function"
    }
  ],
  "bytecode": "0x608060405234801561001057600080fd5b50338061003757604051631e4fbdf760e01b81526000600482015260240160405180910390fd5b6100408161006a565b5060017f9b779b17422d0df92223018b32b4d1fa46e071723d6817e2486d003becc55f00556100ba565b600080546001600160a01b038381166001600160a01b0319831681178455604051919092169283917f8be0079c531659141344cd1fd0a4f28419497f9722a3daafe3b4186f6b6457e09190a35050565b6111c1806100c96000396000f3fe608060405234801561001057600080fd5b50600436106100ea5760003560e01c8063a375765e1161008c578063e238ee7c11610066578063e238ee7c14610212578063f2fde38b14610225578063f987cd9e14610238578063fb24cd9b1461024b57600080fd5b8063a375765e146101d9578063af35a5ea146101ec578063d0dea6e2146101ff57600080fd5b8063633d01d5116100c8578063633d01d514610178578063715018a6146101a15780638da5cb5b146101ab57806399501c07146101c657600080fd5b8063139e38b4146100ef5780631d8de0631461011b5780635930479a14610132575b600080fd5b6101026100fd366004610cc3565b61026b565b6040516101129493929190610cdc565b60405180910390f35b61012460045481565b604051908152602001610112565b610145610140366004610d4b565b61032b565b604080516001600160a01b039687168152959094166020860152928401919091526060830152608082015260a001610112565b610124610186366004610d89565b6001600160a01b031660009081526003602052604090205490565b6101a9610386565b005b6000546040516001600160a01b039091168152602001610112565b6101456101d4366004610d4b565b61039a565b6101a96101e7366004610dab565b61040f565b6101a96101fa366004610e27565b610534565b61012461020d366004610e62565b6107e5565b6101a9610220366004610dab565b610816565b6101a9610233366004610d89565b6109fc565b610102610246366004610cc3565b610a3a565b610124610259366004610cc3565b60009081526002602052604090205490565b6001602081905260009182526040909120805491810180546001600160a01b039093169261029890610e8c565b80601f01602080910402602001604051908101604052809291908181526020018280546102c490610e8c565b80156103115780601f106102e657610100808354040283529160200191610311565b820191906000526020600020905b8154815290600101906020018083116102f457829003601f168201915b50505050600283015460039093015491929160ff16905084565b6002602052816000526040600020818154811061034757600080fd5b6000918252602090912060059091020180546001820154600283015460038401546004909401546001600160a01b039384169650929091169350919085565b61038e610b12565b6103986000610b3f565b565b6000806000806000806002600089815260200190815260200160002087815481106103c7576103c7610ec6565b6000918252602090912060059091020180546001820154600283015460038401546004909401546001600160a01b039384169d939092169b5099509197509095509350505050565b60008381526001602052604090206003015460ff1661046b5760405162461bcd60e51b815260206004820152601360248201527213185b99081b9bdd081c9959da5cdd195c9959606a1b60448201526064015b60405180910390fd5b6000838152600160205260409020546001600160a01b031633148061049a57506000546001600160a01b031633145b6104d75760405162461bcd60e51b815260206004820152600e60248201526d139bdd08185d5d1a1bdc9a5e995960921b6044820152606401610462565b6000838152600160208190526040909120016104f4828483610f43565b50827fe36c73fd13989812054eaa73a813bdd65752bda9044a9bdac079e4143c6ab7bd838360405161052792919061102d565b60405180910390a2505050565b61053c610b8f565b6000848152600160205260409020600381015460ff166105945760405162461bcd60e51b815260206004820152601360248201527213185b99081b9bdd081c9959da5cdd195c9959606a1b6044820152606401610462565b80546001600160a01b03163314806105b657506000546001600160a01b031633145b6105f35760405162461bcd60e51b815260206004820152600e60248201526d139bdd08185d5d1a1bdc9a5e995960921b6044820152606401610462565b6001600160a01b03841661063d5760405162461bcd60e51b8152602060048201526011602482015270125b9d985b1a59081c9958da5c1a595b9d607a1b6044820152606401610462565b80546001600160a01b039081169085160361068e5760405162461bcd60e51b815260206004820152601160248201527020b63932b0b23c903a34329037bbb732b960791b6044820152606401610462565b6000858152600260208181526040808420815160a08101835286546001600160a01b0390811682528a81168286018181528386018c81524260608601908152608086018d8152875460018181018a55988d528a8d209751600590910290970180549787166001600160a01b03199889161781559351848901805491881691891691909117905591519983019990995597516003808301919091559751600490910155885492831681178955875294845291852080549182018155855291909320018790551661075d8187610bbd565b846001600160a01b0316816001600160a01b0316877fcea2b11891b8ccadbf6bbe2d32df012302c4122a5b312403e121423ab155e94787876040516107ac929190918252602082015260400190565b60405180910390a450506107df60017f9b779b17422d0df92223018b32b4d1fa46e071723d6817e2486d003becc55f0055565b50505050565b6003602052816000526040600020818154811061080157600080fd5b90600052602060002001600091509150505481565b60008381526001602052604090206003015460ff16156108785760405162461bcd60e51b815260206004820152601760248201527f4c616e6420616c726561647920726567697374657265640000000000000000006044820152606401610462565b806108b95760405162461bcd60e51b815260206004820152601160248201527012541194c810d251081c995c5d5a5c9959607a1b6044820152606401610462565b6040518060800160405280336001600160a01b0316815260200183838080601f01602080910402602001604051908101604052809392919081815260200183838082843760009201829052509385525050426020808501919091526001604094850181905288845280825293909220845181546001600160a01b0319166001600160a01b03909116178155918401519192830191610958915082611049565b5060408281015160028301556060909201516003918201805460ff1916911515919091179055336000908152602091825291822080546001810182559083529082200184905560048054916109ac8361111f565b9190505550336001600160a01b0316837f8488f9b707e8be00a48832336de77e284d8c0874c325a1f1827db831406e21198484426040516109ef93929190611138565b60405180910390a3505050565b610a04610b12565b6001600160a01b038116610a2e57604051631e4fbdf760e01b815260006004820152602401610462565b610a3781610b3f565b50565b6000818152600160208190526040822080546002820154600383015493830180546060958795869590946001600160a01b039091169392909160ff16908390610a8290610e8c565b80601f0160208091040260200160405190810160405280929190818152602001828054610aae90610e8c565b8015610afb5780601f10610ad057610100808354040283529160200191610afb565b820191906000526020600020905b815481529060010190602001808311610ade57829003601f168201915b505050505092509450945094509450509193509193565b6000546001600160a01b031633146103985760405163118cdaa760e01b8152336004820152602401610462565b600080546001600160a01b038381166001600160a01b0319831681178455604051919092169283917f8be0079c531659141344cd1fd0a4f28419497f9722a3daafe3b4186f6b6457e09190a35050565b610b97610c81565b60027f9b779b17422d0df92223018b32b4d1fa46e071723d6817e2486d003becc55f0055565b6001600160a01b0382166000908152600360205260408120905b81548110156107df5782828281548110610bf357610bf3610ec6565b906000526020600020015403610c795781548290610c139060019061115c565b81548110610c2357610c23610ec6565b9060005260206000200154828281548110610c4057610c40610ec6565b906000526020600020018190555081805480610c5e57610c5e611175565b600190038181906000526020600020016000905590556107df565b600101610bd7565b7f9b779b17422d0df92223018b32b4d1fa46e071723d6817e2486d003becc55f005460020361039857604051633ee5aeb560e01b815260040160405180910390fd5b600060208284031215610cd557600080fd5b5035919050565b60018060a01b03851681526000602060806020840152855180608085015260005b81811015610d195787810183015185820160a001528201610cfd565b50600060a0828601015260a0601f19601f83011685010192505050836040830152821515606083015295945050505050565b60008060408385031215610d5e57600080fd5b50508035926020909101359150565b80356001600160a01b0381168114610d8457600080fd5b919050565b600060208284031215610d9b57600080fd5b610da482610d6d565b9392505050565b600080600060408486031215610dc057600080fd5b83359250602084013567ffffffffffffffff80821115610ddf57600080fd5b818601915086601f830112610df357600080fd5b813581811115610e0257600080fd5b876020828501011115610e1457600080fd5b6020830194508093505050509250925092565b60008060008060808587031215610e3d57600080fd5b84359350610e4d60208601610d6d565b93969395505050506040820135916060013590565b60008060408385031215610e7557600080fd5b610e7e83610d6d565b946020939093013593505050565b600181811c90821680610ea057607f821691505b602082108103610ec057634e487b7160e01b600052602260045260246000fd5b50919050565b634e487b7160e01b600052603260045260246000fd5b634e487b7160e01b600052604160045260246000fd5b601f821115610f3e576000816000526020600020601f850160051c81016020861015610f1b5750805b601f850160051c820191505b81811015610f3a57828155600101610f27565b5050505b505050565b67ffffffffffffffff831115610f5b57610f5b610edc565b610f6f83610f698354610e8c565b83610ef2565b6000601f841160018114610fa35760008515610f8b5750838201355b600019600387901b1c1916600186901b178355610ffd565b600083815260209020601f19861690835b82811015610fd45786850135825560209485019460019092019101610fb4565b5086821015610ff15760001960f88860031b161c19848701351681555b505060018560011b0183555b5050505050565b81835281816020850137506000828201602090810191909152601f909101601f19169091010190565b602081526000611041602083018486611004565b949350505050565b815167ffffffffffffffff81111561106357611063610edc565b611077816110718454610e8c565b84610ef2565b602080601f8311600181146110ac57600084156110945750858301515b600019600386901b1c1916600185901b178555610f3a565b600085815260208120601f198616915b828110156110db578886015182559484019460019091019084016110bc565b50858210156110f95787850151600019600388901b60f8161c191681555b5050505050600190811b01905550565b634e487b7160e01b600052601160045260246000fd5b60006001820161113157611131611109565b5060010190565b60408152600061114c604083018587611004565b9050826020830152949350505050565b8181038181111561116f5761116f611109565b92915050565b634e487b7160e01b600052603160045260246000fdfea2646970667358221220845955334aede39cecf42d12e26a940630d5d795f91f581c6b172ab7cf06dc2564736f6c63430008180033",
  "linkReferences": {},
  "deployedLinkReferences": {}
}