{
  "_format": "hh3-artifact-1",
  "contractName": "OfficerMultiSig",
  "sourceName": "contracts/OfficerMultiSig.sol",
  "abi": [
    {
      "inputs": [
        {
          "internalType": "address[3]",
          "name": "_officers",
          "type": "address[3]"
        },
        {
          "internalType": "address",
          "name": "_transfer",
          "type": "address"
        },
        {
          "internalType": "address",
          "name": "_registry",
          "type": "address"
        }
      ],
      "stateMutability": "nonpayable",
      "type": "constructor"
    },
    {
      "inputs": [],
      "name": "ReentrancyGuardReentrantCall",
      "type": "error"
    },
    {
      "anonymous": false,
      "inputs": [
        {
          "indexed": true,
          "internalType": "uint256",
          "name": "reviewId",
          "type": "uint256"
        },
        {
          "indexed": true,
          "internalType": "address",
          "name": "officer",
          "type": "address"
        },
        {
          "indexed": false,
          "internalType": "uint256",
          "name": "approvalCount",
          "type": "uint256"
        }
      ],
      "name": "OfficerApproved",
      "type": "event"
    },
    {
      "anonymous": false,
      "inputs": [
        {
          "indexed": true,
          "internalType": "uint256",
          "name": "reviewId",
          "type": "uint256"
        },
        {
          "indexed": true,
          "internalType": "address",
          "name": "officer",
          "type": "address"
        },
        {
          "indexed": false,
          "internalType": "string",
          "name": "reason",
          "type": "string"
        }
      ],
      "name": "OfficerRejected",
      "type": "event"
    },
    {
      "anonymous": false,
      "inputs": [
        {
          "indexed": true,
          "internalType": "uint256",
          "name": "slot",
          "type": "uint256"
        },
        {
          "indexed": true,
          "internalType": "address",
          "name": "oldOfficer",
          "type": "address"
        },
        {
          "indexed": true,
          "internalType": "address",
          "name": "newOfficer",
          "type": "address"
        }
      ],
      "name": "OfficerRotated",
      "type": "event"
    },
    {
      "anonymous": false,
      "inputs": [
        {
          "indexed": true,
          "internalType": "uint256",
          "name": "reviewId",
          "type": "uint256"
        },
        {
          "indexed": true,
          "internalType": "uint256",
          "name": "proposalId",
          "type": "uint256"
        },
        {
          "indexed": true,
          "internalType": "bytes32",
          "name": "landId",
          "type": "bytes32"
        },
        {
          "indexed": false,
          "internalType": "bytes32",
          "name": "offChainCaseRef",
          "type": "bytes32"
        }
      ],
      "name": "ReviewSubmitted",
      "type": "event"
    },
    {
      "anonymous": false,
      "inputs": [
        {
          "indexed": true,
          "internalType": "uint256",
          "name": "reviewId",
          "type": "uint256"
        },
        {
          "indexed": true,
          "internalType": "uint256",
          "name": "proposalId",
          "type": "uint256"
        },
        {
          "indexed": true,
          "internalType": "bytes32",
          "name": "landId",
          "type": "bytes32"
        }
      ],
      "name": "TransferApproved",
      "type": "event"
    },
    {
      "anonymous": false,
      "inputs": [
        {
          "indexed": true,
          "internalType": "uint256",
          "name": "reviewId",
          "type": "uint256"
        },
        {
          "indexed": true,
          "internalType": "uint256",
          "name": "proposalId",
          "type": "uint256"
        },
        {
          "indexed": true,
          "internalType": "bytes32",
          "name": "landId",
          "type": "bytes32"
        },
        {
          "indexed": false,
          "internalType": "string",
          "name": "reason",
          "type": "string"
        }
      ],
      "name": "TransferRejected",
      "type": "event"
    },
    {
      "inputs": [],
      "name": "OFFICER_COUNT",
      "outputs": [
        {
          "internalType": "uint256",
          "name": "",
          "type": "uint256"
        }
      ],
      "stateMutability": "view",
      "type": "function"
    },
    {
      "inputs": [],
      "name": "THRESHOLD",
      "outputs": [
        {
          "internalType": "uint256",
          "name": "",
          "type": "uint256"
        }
      ],
      "stateMutability": "view",
      "type": "function"
    },
    {
      "inputs": [],
      "name": "admin",
      "outputs": [
        {
          "internalType": "address",
          "name": "",
          "type": "address"
        }
      ],
      "stateMutability": "view",
      "type": "function"
    },
    {
      "inputs": [
        {
          "internalType": "uint256",
          "name": "reviewId",
          "type": "uint256"
        }
      ],
      "name": "approve",
      "outputs": [],
      "stateMutability": "nonpayable",
      "type": "function"
    },
    {
      "inputs": [
        {
          "internalType": "bytes32",
          "name": "landId",
          "type": "bytes32"
        }
      ],
      "name": "clearFreeze",
      "outputs": [],
      "stateMutability": "nonpayable",
      "type": "function"
    },
    {
      "inputs": [
        {
          "internalType": "address",
          "name": "wallet",
          "type": "address"
        }
      ],
      "name": "getOfficerIndex",
      "outputs": [
        {
          "internalType": "uint256",
          "name": "",
          "type": "uint256"
        }
      ],
      "stateMutability": "view",
      "type": "function"
    },
    {
      "inputs": [],
      "name": "getOfficers",
      "outputs": [
        {
          "internalType": "address[3]",
          "name": "",
          "type": "address[3]"
        }
      ],
      "stateMutability": "view",
      "type": "function"
    },
    {
      "inputs": [
        {
          "internalType": "uint256",
          "name": "reviewId",
          "type": "uint256"
        }
      ],
      "name": "getReview",
      "outputs": [
        {
          "internalType": "bytes32",
          "name": "landId",
          "type": "bytes32"
        },
        {
          "internalType": "uint256",
          "name": "proposalId",
          "type": "uint256"
        },
        {
          "internalType": "bytes32",
          "name": "offChainCaseRef",
          "type": "bytes32"
        },
        {
          "internalType": "uint256",
          "name": "approvalCount",
          "type": "uint256"
        },
        {
          "internalType": "uint256",
          "name": "rejectionCount",
          "type": "uint256"
        },
        {
          "internalType": "bool",
          "name": "executed",
          "type": "bool"
        },
        {
          "internalType": "bool",
          "name": "rejected",
          "type": "bool"
        }
      ],
      "stateMutability": "view",
      "type": "function"
    },
    {
      "inputs": [
        {
          "internalType": "uint256",
          "name": "proposalId",
          "type": "uint256"
        }
      ],
      "name": "getReviewByProposal",
      "outputs": [
        {
          "internalType": "uint256",
          "name": "",
          "type": "uint256"
        }
      ],
      "stateMutability": "view",
      "type": "function"
    },
    {
      "inputs": [
        {
          "internalType": "uint256",
          "name": "reviewId",
          "type": "uint256"
        },
        {
          "internalType": "address",
          "name": "officer",
          "type": "address"
        }
      ],
      "name": "getVote",
      "outputs": [
        {
          "internalType": "enum OfficerMultiSig.Vote",
          "name": "",
          "type": "uint8"
        }
      ],
      "stateMutability": "view",
      "type": "function"
    },
    {
      "inputs": [
        {
          "internalType": "address",
          "name": "",
          "type": "address"
        }
      ],
      "name": "isOfficer",
      "outputs": [
        {
          "internalType": "bool",
          "name": "",
          "type": "bool"
        }
      ],
      "stateMutability": "view",
      "type": "function"
    },
    {
      "inputs": [
        {
          "internalType": "address",
          "name": "",
          "type": "address"
        }
      ],
      "name": "officerIndex",
      "outputs": [
        {
          "internalType": "uint256",
          "name": "",
          "type": "uint256"
        }
      ],
      "stateMutability": "view",
      "type": "function"
    },
    {
      "inputs": [
        {
          "internalType": "uint256",
          "name": "",
          "type": "uint256"
        }
      ],
      "name": "officers",
      "outputs": [
        {
          "internalType": "address",
          "name": "",
          "type": "address"
        }
      ],
      "stateMutability": "view",
      "type": "function"
    },
    {
      "inputs": [
        {
          "internalType": "uint256",
          "name": "",
          "type": "uint256"
        }
      ],
      "name": "proposalToReview",
      "outputs": [
        {
          "internalType": "uint256",
          "name": "",
          "type": "uint256"
        }
      ],
      "stateMutability": "view",
      "type": "function"
    },
    {
      "inputs": [],
      "name": "registryContract",
      "outputs": [
        {
          "internalType": "contract ILandRegistry",
          "name": "",
          "type": "address"
        }
      ],
      "stateMutability": "view",
      "type": "function"
    },
    {
      "inputs": [
        {
          "internalType": "uint256",
          "name": "reviewId",
          "type": "uint256"
        },
        {
          "internalType": "string",
          "name": "reason",
          "type": "string"
        }
      ],
      "name": "reject",
      "outputs": [],
      "stateMutability": "nonpayable",
      "type": "function"
    },
    {
      "inputs": [],
      "name": "reviewCount",
      "outputs": [
        {
          "internalType": "uint256",
          "name": "",
          "type": "uint256"
        }
      ],
      "stateMutability": "view",
      "type": "function"
    },
    {
      "inputs": [
        {
          "internalType": "uint256",
          "name": "slot",
          "type": "uint256"
        },
        {
          "internalType": "address",
          "name": "newOfficer",
          "type": "address"
        }
      ],
      "name": "rotateOfficer",
      "outputs": [],
      "stateMutability": "nonpayable",
      "type": "function"
    },
    {
      "inputs": [
        {
          "internalType": "uint256",
          "name": "proposalId",
          "type": "uint256"
        },
        {
          "internalType": "bytes32",
          "name": "landId",
          "type": "bytes32"
        },
        {
          "internalType": "bytes32",
          "name": "offChainCaseRef",
          "type": "bytes32"
        }
      ],
      "name": "submitForReview",
      "outputs": [
        {
          "internalType": "uint256",
          "name": "reviewId",
          "type": "uint256"
        }
      ],
      "stateMutability": "nonpayable",
      "type": "function"
    },
    {
      "inputs": [
        {
          "internalType": "address",
          "name": "newAdmin",
          "type": "address"
        }
      ],
      "name": "transferAdmin",
      "outputs": [],
      "stateMutability": "nonpayable",
      "type": "function"
    },
    {
      "inputs": [],
      "name": "transferContract",
      "outputs": [
        {
          "internalType": "contract IMultiSigTransfer",
          "name": "",
          "type": "address"
        }
      ],
      "stateMutability": "view",
      "type": "function"
    }
  ],
  "bytecode": "0x608060405234801562000010575f80fd5b5060405162001820380380620018208339810160408190526200003391620002c0565b60017f9b779b17422d0df92223018b32b4d1fa46e071723d6817e2486d003becc55f00556001600160a01b038216620000b35760405162461bcd60e51b815260206004820152601960248201527f496e76616c6964207472616e7366657220636f6e74726163740000000000000060448201526064015b60405180910390fd5b6001600160a01b0381166200010b5760405162461bcd60e51b815260206004820152601960248201527f496e76616c696420726567697374727920636f6e7472616374000000000000006044820152606401620000aa565b5f5b60038110156200024c575f8482600381106200012d576200012d6200036c565b602002015190506001600160a01b0381166200018c5760405162461bcd60e51b815260206004820152601760248201527f496e76616c6964206f66666963657220616464726573730000000000000000006044820152606401620000aa565b6001600160a01b0381165f9081526003602052604090205460ff1615620001ea5760405162461bcd60e51b8152602060048201526011602482015270223ab83634b1b0ba329037b33334b1b2b960791b6044820152606401620000aa565b805f83600381106200020057620002006200036c565b0180546001600160a01b0319166001600160a01b03928316179055165f908152600360209081526040808320805460ff191660019081179091556004909252909120829055016200010d565b50600580546001600160a01b039384166001600160a01b03199182161790915560068054929093169181169190911790915560078054909116331790555062000380565b634e487b7160e01b5f52604160045260245ffd5b80516001600160a01b0381168114620002bb575f80fd5b919050565b5f805f60a08486031215620002d3575f80fd5b84601f850112620002e2575f80fd5b604051606081016001600160401b038111828210171562000307576200030762000290565b6040528060608601878111156200031c575f80fd5b865b8181101562000341576200033281620002a4565b8352602092830192016200031e565b508295506200035081620002a4565b94505050506200036360808501620002a4565b90509250925092565b634e487b7160e01b5f52603260045260245ffd5b611492806200038e5f395ff3fe608060405234801561000f575f80fd5b5060043610610132575f3560e01c80637bc39341116100b4578063bc3f931f11610079578063bc3f931f146102d4578063ca057814146102f4578063de591bcf14610313578063eff5924f14610326578063f851a4401461032f578063fdc42e6614610342575f80fd5b80637bc393411461023c5780638cc652141461024f578063989cb1a814610262578063990581b614610275578063b759f954146102c1575f80fd5b80636816442d116100fa5780636816442d146101c75780636b291d9f146101f957806371d68a971461020c57806375829def14610221578063785ffb3714610234575f80fd5b80630f7151dc1461013657806313cf6d3e14610154578063195ee0b61461018157806328c1f99b14610194578063524c5379146101bf575b5f80fd5b61013e610361565b60405161014b9190611118565b60405180910390f35b610173610162366004611151565b600a6020525f908152604090205481565b60405190815260200161014b565b61017361018f366004611168565b6103a5565b6006546101a7906001600160a01b031681565b6040516001600160a01b03909116815260200161014b565b610173600381565b6101e96101d53660046111ac565b60036020525f908152604090205460ff1681565b604051901515815260200161014b565b6101a7610207366004611151565b610536565b61021f61021a3660046111cc565b610554565b005b61021f61022f3660046111ac565b6108ef565b610173600281565b6005546101a7906001600160a01b031681565b61021f61025d366004611241565b6109b1565b6101736102703660046111ac565b610bee565b610288610283366004611151565b610c61565b6040805197885260208801969096529486019390935260608501919091526080840152151560a0830152151560c082015260e00161014b565b61021f6102cf366004611151565b610d05565b6102e76102e2366004611241565b610fa3565b60405161014b919061127f565b610173610302366004611151565b5f908152600a602052604090205490565b61021f610321366004611151565b61102b565b61017360095481565b6007546101a7906001600160a01b031681565b6101736103503660046111ac565b60046020525f908152604090205481565b6103696110fa565b604080516060810191829052905f9060039082845b81546001600160a01b0316815260019091019060200180831161037e575050505050905090565b6005545f906001600160a01b0316331461041f5760405162461bcd60e51b815260206004820152603060248201527f4f6666696365724d756c74695369673a2063616c6c6572206973206e6f74207460448201526f1c985b9cd9995c8818dbdb9d1c9858dd60821b60648201526084015b60405180910390fd5b5f848152600a6020526040902054156104915760405162461bcd60e51b815260206004820152602e60248201527f4f6666696365724d756c74695369673a2070726f706f73616c20616c7265616460448201526d7920756e6465722072657669657760901b6064820152608401610416565b60095f815461049f906112a5565b91829055505f8181526008602090815260408083208781556001810189905560028101879055600381018490556004810184905560058101805462ffffff191662010000179055888452600a8352928190208490555185815292935090918591879185917f6cd8efcff54f475075fb4180dbf617b4b366c585fa513789c2d1ab9597f49da3910160405180910390a4509392505050565b5f8160038110610544575f80fd5b01546001600160a01b0316905081565b335f9081526003602052604090205460ff166105825760405162461bcd60e51b8152600401610416906112c9565b5f83815260086020526040902060050154839062010000900460ff166105ba5760405162461bcd60e51b815260040161041690611300565b5f84815260086020526040902060050154849060ff16156105ed5760405162461bcd60e51b815260040161041690611341565b5f81815260086020526040902060050154610100900460ff16156106235760405162461bcd60e51b815260040161041690611382565b61062b6110ae565b826106785760405162461bcd60e51b815260206004820181905260248201527f4f6666696365724d756c74695369673a20726561736f6e2072657175697265646044820152606401610416565b6101f48311156106ca5760405162461bcd60e51b815260206004820181905260248201527f4f6666696365724d756c74695369673a20726561736f6e20746f6f206c6f6e676044820152606401610416565b5f85815260086020526040812090335f90815260068301602052604090205460ff1660028111156106fd576106fd61126b565b1461074a5760405162461bcd60e51b815260206004820152601e60248201527f4f6666696365724d756c74695369673a20616c726561647920766f74656400006044820152606401610416565b335f9081526006820160205260408120805460ff1916600217905560048201805491610775836112a5565b909155505060058101805461ff001916610100179055604051339087907f51c2067e3084ea930f7c3155fae3d3e45d384dc285775f71cbaa557d477db347906107c190899089906113eb565b60405180910390a3805f01548160010154877fc3e9e35a67692a956367944bddaaa09f078324c8b3e20be3496a319316fbd83988886040516108049291906113eb565b60405180910390a4600554600182015460405163e0a8f6f560e01b81526001600160a01b039092169163e0a8f6f5916108439160040190815260200190565b5f604051808303815f87803b15801561085a575f80fd5b505af115801561086c573d5f803e3d5ffd5b5050600654835460405163986ddccf60e01b81526001600160a01b03909216935063986ddccf92506108a49189908990600401611406565b5f604051808303815f87803b1580156108bb575f80fd5b505af11580156108cd573d5f803e3d5ffd5b50505050506108e860015f8051602061143d83398151915255565b5050505050565b6007546001600160a01b031633146109495760405162461bcd60e51b815260206004820152601a60248201527f4f6666696365724d756c74695369673a206e6f742061646d696e0000000000006044820152606401610416565b6001600160a01b03811661098f5760405162461bcd60e51b815260206004820152600d60248201526c24b73b30b634b21030b236b4b760991b6044820152606401610416565b600780546001600160a01b0319166001600160a01b0392909216919091179055565b6007546001600160a01b03163314610a0b5760405162461bcd60e51b815260206004820152601a60248201527f4f6666696365724d756c74695369673a206e6f742061646d696e0000000000006044820152606401610416565b60038210610a5b5760405162461bcd60e51b815260206004820152601d60248201527f4f6666696365724d756c74695369673a20696e76616c696420736c6f740000006044820152606401610416565b6001600160a01b038116610ab15760405162461bcd60e51b815260206004820181905260248201527f4f6666696365724d756c74695369673a20696e76616c696420616464726573736044820152606401610416565b6001600160a01b0381165f9081526003602052604090205460ff1615610b255760405162461bcd60e51b815260206004820152602360248201527f4f6666696365724d756c74695369673a20616c726561647920616e206f66666960448201526231b2b960e91b6064820152608401610416565b5f808360038110610b3857610b38611428565b01546001600160a01b03165f818152600360208181526040808420805460ff1916905560049091528220829055919250839185908110610b7a57610b7a611428565b0180546001600160a01b0319166001600160a01b039283161790558281165f818152600360209081526040808320805460ff19166001179055600490915280822087905551919284169186917f7647d26251bcde8c943863ed0b08a33da2d729a69e240bdf6496983d26d94e9e91a4505050565b6001600160a01b0381165f9081526003602052604081205460ff16610c465760405162461bcd60e51b815260206004820152600e60248201526d2737ba1030b71037b33334b1b2b960911b6044820152606401610416565b506001600160a01b03165f9081526004602052604090205490565b5f818152600860205260408120600581015482918291829182918291829162010000900460ff16610cc75760405162461bcd60e51b815260206004820152601060248201526f14995d9a595dc81b9bdd08199bdd5b9960821b6044820152606401610416565b80546001820154600283015460038401546004850154600590950154939d929c50909a50985091965060ff8082169650610100909104169350915050565b335f9081526003602052604090205460ff16610d335760405162461bcd60e51b8152600401610416906112c9565b5f81815260086020526040902060050154819062010000900460ff16610d6b5760405162461bcd60e51b815260040161041690611300565b5f82815260086020526040902060050154829060ff1615610d9e5760405162461bcd60e51b815260040161041690611341565b5f81815260086020526040902060050154610100900460ff1615610dd45760405162461bcd60e51b815260040161041690611382565b610ddc6110ae565b5f83815260086020526040812090335f90815260068301602052604090205460ff166002811115610e0f57610e0f61126b565b14610e5c5760405162461bcd60e51b815260206004820152601e60248201527f4f6666696365724d756c74695369673a20616c726561647920766f74656400006044820152606401610416565b335f9081526006820160205260408120805460ff1916600117905560038201805491610e87836112a5565b9190505550336001600160a01b0316847ff4ca63bbdfb9c5c949703efb32c92f969697fdcfc926323a2b0edb23df312f1e8360030154604051610ecc91815260200190565b60405180910390a36002816003015410610f875760058101805460ff1916600190811790915581549082015460405186907f403aee8da5a52536925df29f507bd0d4f8dcdcbd8ccf2adcbdc92f82f39ce776905f90a4600554600182015460405163782eaba960e11b81526001600160a01b039092169163f05d575291610f599160040190815260200190565b5f604051808303815f87803b158015610f70575f80fd5b505af1158015610f82573d5f803e3d5ffd5b505050505b50610f9e60015f8051602061143d83398151915255565b505050565b5f8281526008602052604081206005015462010000900460ff16610ffc5760405162461bcd60e51b815260206004820152601060248201526f14995d9a595dc81b9bdd08199bdd5b9960821b6044820152606401610416565b505f8281526008602090815260408083206001600160a01b038516845260060190915290205460ff1692915050565b335f9081526003602052604090205460ff166110595760405162461bcd60e51b8152600401610416906112c9565b60065460405163291fdf8f60e01b8152600481018390526001600160a01b039091169063291fdf8f906024015f604051808303815f87803b15801561109c575f80fd5b505af11580156108e8573d5f803e3d5ffd5b6110b66110c9565b60025f8051602061143d83398151915255565b5f8051602061143d833981519152546002036110f857604051633ee5aeb560e01b815260040160405180910390fd5b565b60405180606001604052806003906020820280368337509192915050565b6060810181835f5b60038110156111485781516001600160a01b0316835260209283019290910190600101611120565b50505092915050565b5f60208284031215611161575f80fd5b5035919050565b5f805f6060848603121561117a575f80fd5b505081359360208301359350604090920135919050565b80356001600160a01b03811681146111a7575f80fd5b919050565b5f602082840312156111bc575f80fd5b6111c582611191565b9392505050565b5f805f604084860312156111de575f80fd5b83359250602084013567ffffffffffffffff808211156111fc575f80fd5b818601915086601f83011261120f575f80fd5b81358181111561121d575f80fd5b87602082850101111561122e575f80fd5b6020830194508093505050509250925092565b5f8060408385031215611252575f80fd5b8235915061126260208401611191565b90509250929050565b634e487b7160e01b5f52602160045260245ffd5b602081016003831061129f57634e487b7160e01b5f52602160045260245ffd5b91905290565b5f600182016112c257634e487b7160e01b5f52601160045260245ffd5b5060010190565b6020808252601f908201527f4f6666696365724d756c74695369673a206e6f7420616e206f66666963657200604082015260600190565b60208082526021908201527f4f6666696365724d756c74695369673a20726576696577206e6f7420666f756e6040820152601960fa1b606082015260800190565b60208082526021908201527f4f6666696365724d756c74695369673a20616c726561647920657865637574656040820152601960fa1b606082015260800190565b60208082526021908201527f4f6666696365724d756c74695369673a20616c72656164792072656a656374656040820152601960fa1b606082015260800190565b81835281816020850137505f828201602090810191909152601f909101601f19169091010190565b602081525f6113fe6020830184866113c3565b949350505050565b838152604060208201525f61141f6040830184866113c3565b95945050505050565b634e487b7160e01b5f52603260045260245ffdfe9b779b17422d0df92223018b32b4d1fa46e071723d6817e2486d003becc55f00a264697066735822122040a9cfcad96ec351e22e7e1eab63fb95da32bea1d5e61c42e7e362a0fbcbcb2c64736f6c63430008180033",
  "linkReferences": {},
  "deployedLinkReferences": {},
  "immutableReferences": {},
  "inputSourceName": "project/contracts/OfficerMultiSig.sol",
  "buildInfoId": "solc-0_8_24-92843b648ee0cf328db4975d845efe2fa7ef4c85"
}